:100000000C9435000C945D000C945D000C945D0024
:100010000C945D000C945D000C945D000C945D00EC
:100020000C945D000C945D000C945D000C945D00DC
:100030000C945D000C945D000C945D000C945D00CC
:100040000C9473020C945D000C9441020C941B02FE
:100050000C945D000C945D000C945D000C945D00AC
:100060000C945D000C945D00990311241FBECFEF2A
:10007000D8E0DEBFCDBF11E0A0E0B1E0EAE4F8E0F7
:1000800002C005900D92A831B107D9F721E0A8E18F
:10009000B1E001C01D92A23CB207E1F710E0C5E358
:1000A000D0E004C02197FE010E940904C433D107A7
:1000B000C9F70E94BD020C9423040C940000CF9257
:1000C000DF92EF92FF920F931F93CF93DF936C0118
:1000D0007A018B01C0E0D0E0CE15DF0589F0D801B0
:1000E0006D918D01D601ED91FC910190F081E02D93
:1000F000C6010995892B11F47E0102C02196ECCF2F
:10010000C701DF91CF911F910F91FF90EF90DF908A
:10011000CF900895089580E090E00895FC01538DFC
:10012000448D252F30E0842F90E0821B930B5417D1
:1001300010F0CF96089501970895FC01918D828D5E
:10014000981761F0828DDF01A80FB11D5D968C912B
:10015000928D9F5F9F73928F90E008958FEF9FEF36
:100160000895FC01918D828D981731F0828DE80FF2
:10017000F11D858D90E008958FEF9FEF0895FC01AC
:10018000918D228D892F90E0805C9F4F821B910979
:100190008F739927089585E291E00E94BF0021E0C6
:1001A000892B09F420E0822F0895FC01848DDF0162
:1001B000A80FB11DA35ABF4F2C91848D90E00196DA
:1001C0008F739927848FA689B7892C93A089B189C9
:1001D0008C9180648C93938D848D981306C00288D3
:1001E000F389E02D80818F7D80830895EF92FF92C7
:1001F0000F931F93CF93DF93EC0181E0888F9B8D4A
:100200008C8D981305C0E889F989808185FD24C00B
:10021000F62E0B8D10E00F5F1F4F0F731127E02E8E
:100220008C8DE8120CC00FB607FCFACFE889F9896B
:10023000808185FFF5CFCE010E94D500F1CF8B8D57
:10024000FE01E80FF11DE35AFF4FF0820B8FEA89A0
:10025000FB898081806207C0EE89FF896083E8891D
:10026000F98980818064808381E090E0DF91CF9183
:100270001F910F91FF90EF900895CF93DF93EC01C2
:10028000888D8823C9F0EA89FB89808185FD05C0B6
:10029000A889B9898C9186FD0FC00FB607FCF5CFF0
:1002A000808185FFF2CFA889B9898C9185FFEDCF38
:1002B000CE010E94D500E7CFDF91CF91089580E075
:1002C00090E0892B29F00E94CB0081110C94000052
:1002D00008959FB7F89440911D0150911E016091BF
:1002E0001F017091200186B5A89B06C08F3F21F0A9
:1002F0004F5F5F4F6F4F7F4F9FBF762F652F542FFC
:1003000044279A01AB01280F311D411D511DA5E065
:10031000B0E00E94FE030895009769F0FC0101908F
:100320000020E9F73197AF01481B590BBC0185E26A
:1003300091E00C945F0080E090E008958F929F928E
:10034000AF92BF92CF92DF92EF92FF920F931F93E3
:10035000CF93DF93CDB7DEB7A1970FB6F894DEBF8A
:100360000FBECDBF6C01990FEE08FF08F7FE31C03C
:10037000E0912501F09126010190F081E02D6DE2E0
:1003800085E291E009958C0122273327A9012C19D8
:100390003D094E095F0919A2CE0181967C019AE0C0
:1003A000892E912CA12CB12CCA01B901A50194016F
:1003B0000E94DC03605DF70162937F012115310526
:1003C0004105510589F7CF010E948C01800F911FD3
:1003D0001DC0A701960119A28E010F5D1F4F8AE073
:1003E000C82ED12CE12CF12CCA01B901A70196012C
:1003F0000E94DC03605DF80162938F0121153105D5
:100400004105510589F7CF010E948C01A1960FB6D5
:10041000F894DEBF0FBECDBFDF91CF911F910F913A
:10042000FF90EF90DF90CF90BF90AF909F908F9014
:1004300008950E941E041F920F920FB60F9211246E
:100440002F933F934F935F936F937F938F939F93DC
:10045000AF93BF93EF93FF9385E291E00E94D500A5
:10046000FF91EF91BF91AF919F918F917F916F918C
:100470005F914F913F912F910F900FBE0F901F9062
:1004800018951F920F920FB60F9211242F938F93EE
:100490009F93EF93FF93E0913501F09136018081B6
:1004A000E0913B01F0913C0182FD12C0908180916E
:1004B0003E018F5F8F7320913F01821751F0E091D1
:1004C0003E01F0E0EB5DFE4F958F80933E0101C051
:1004D0008081FF91EF919F918F912F910F900FBE8F
:1004E0000F901F9018951F920F920FB60F92112424
:1004F0002F933F938F939F93AF93BF938091190155
:1005000090911A01A0911B01B0911C01309118012A
:100510002DE2230F2D3720F40196A11DB11D05C03A
:1005200020EB230F0296A11DB11D2093180180938B
:10053000190190931A01A0931B01B0931C018091A3
:100540001D0190911E01A0911F01B0912001019603
:10055000A11DB11D80931D0190931E01A0931F0149
:10056000B0932001BF91AF919F918F913F912F91B7
:100570000F900FBE0F901F901895789484B58260ED
:1005800084BD84B5816084BD85B5826085BD85B537
:10059000816085BD80916E00816080936E001092B5
:1005A0008100809181008260809381008091810030
:1005B00081608093810080918000816080938000C1
:1005C0008091B10084608093B1008091B00081601F
:1005D0008093B00080917A00846080937A0080914B
:1005E0007A00826080937A0080917A008E7F809377
:1005F0007A0080917A00806880937A001092C1001E
:10060000E0913501F091360182E08083E091310183
:10061000F09132011082E0913301F091340189E1CF
:10062000808310923D01E0913901F0913A0186E01A
:100630008083E0913701F09138018081806180836F
:10064000E0913701F0913801808188608083E091EA
:100650003701F0913801808180688083E091370113
:10066000F091380180818F7D8083C0E0D0E06C2FD5
:10067000CE010E94CE032196CF3FD105C1F7C09194
:100680002301D0912401CE010E94C603282F30E01F
:100690003093220120932101CE010E949E0182E12C
:1006A00091E00E948C0180912101909122010E9491
:1006B0009E0184E191E00E948C0180912301909140
:1006C00024010196811522E0920729F090932401DC
:1006D0008093230104C010922401109223010E94F0
:1006E00069014B015C0184EFC82EDD24D394E12C19
:1006F000F12C0E946901DC01CB0188199909AA0932
:10070000BB09883E9340A105B10558F081E0C81AA5
:10071000D108E108F10828EE820E23E0921EA11C08
:10072000B11CC114D104E104F10419F70E945F0166
:10073000A6CFE5E2F1E01382128288EE93E0A0E01A
:10074000B0E084839583A683B78384E091E09183AE
:10075000808385EC90E09587848784EC90E0978790
:10076000868780EC90E0918B808B81EC90E0938B7E
:10077000828B82EC90E0958B848B86EC90E0978B5B
:10078000868B118E128E138E148E0895F999FECFDA
:1007900092BD81BDF89A992780B50895262FF999C1
:1007A000FECF1FBA92BD81BD20BD0FB6F894FA9A54
:1007B000F99A0FBE01960895A1E21A2EAA1BBB1B3F
:1007C000FD010DC0AA1FBB1FEE1FFF1FA217B3071D
:1007D000E407F50720F0A21BB30BE40BF50B661F33
:1007E000771F881F991F1A9469F7609570958095F7
:1007F00090959B01AC01BD01CF0108950E940F04AB
:10080000A59F900DB49F900DA49F800D911D112464
:100810000895EE0FFF1F0590F491E02D0994A29F1B
:10082000B001B39FC001A39F700D811D1124911DC4
:10083000B29F700D811D1124911D089581E090E0FB
:0A084000F8940C942304F894FFCF01
:10084A0000000000F6005F008E003D01BF009D0021
:08085A00B10009000D0A0000C5
:00000001FF
