:100000000C9435000C945D000C945D000C945D0024
:100010000C945D000C945D000C945D000C945D00EC
:100020000C945D000C945D000C945D000C945D00DC
:100030000C945D000C945D000C945D000C945D00CC
:100040000C9473020C945D000C9441020C941B02FE
:100050000C945D000C945D000C945D000C945D00AC
:100060000C945D000C945D00990311241FBECFEF2A
:10007000D8E0DEBFCDBF11E0A0E0B1E0EAE4F8E0F7
:1000800002C005900D92A831B107D9F721E0A8E18F
:10009000B1E001C01D92A23CB207E1F710E0C5E358
:1000A000D0E004C02197FE010E940904C433D107A7
:1000B000C9F70E94BD020C9423040C940000CF9257
:1000C000DF92EF92FF920F931F93CF93DF936C0118
:1000D0007A018B01C0E0D0E0CE15DF0589F0D801B0
:1000E0006D918D01D601ED91FC910190F081E02D93
:1000F000C6010995892B11F47E0102C02196ECCF2F
:10010000C701DF91CF911F910F91FF90EF90DF908A
:10011000CF900895089580E090E00895FC01538DFC
:10012000448D252F30E0842F90E0821B930B5417D1
:1001300010F0CF96089501970895FC01918D828D5E
:10014000981761F0828DDF01A80FB11D5D968C912B
:10015000928D9F5F9F73928F90E008958FEF9FEF36
:100160000895FC01918D828D981731F0828DE80FF2
:10017000F11D858D90E008958FEF9FEF0895FC01AC
:10018000918D228D892F90E0805C9F4F821B910979
:100190008F739927089585E291E00E94BF0021E0C6
:1001A000892B09F420E0822F0895FC01848DDF0162
:1001B000A80FB11DA35ABF4F2C91848D90E00196DA
:1001C0008F739927848FA689B7892C93A089B189C9
:1001D0008C9180648C93938D848D981306C00288D3
:1001E000F389E02D80818F7D80830895EF92FF92C7
:1001F0000F931F93CF93DF93EC0181E0888F9B8D4A
:100200008C8D981305C0E889F989808185FD24C00B
:10021000F62E0B8D10E00F5F1F4F0F731127E02E8E
:100220008C8DE8120CC00FB607FCFACFE889F9896B
:10023000808185FFF5CFCE010E94D500F1CF8B8D57
:10024000FE01E80FF11DE35AFF4FF0820B8FEA89A0
:10025000FB898081806207C0EE89FF896083E8891D
:10026000F98980818064808381E090E0DF91CF9183
:100270001F910F91FF90EF900895CF93DF93EC01C2
:10028000888D8823C9F0EA89FB89808185FD05C0B6
:10029000A889B9898C9186FD0FC00FB607FCF5CFF0
:1002A000808185FFF2CFA889B9898C9185FFEDCF38
:1002B000CE010E94D500E7CFDF91CF91089580E075
:1002C00090E0892B29F00E94CB0081110C94000052
:1002D00008959FB7F89440911D0150911E016091BF
:1002E0001F017091200186B5A89B06C08F3F21F0A9
:1002F0004F5F5F4F6F4F7F4F9FBF762F652F542FFC
:1003000044279A01AB01280F311D411D511DA5E065
:10031000B0E00E94FE030895009769F0FC0101908F
:100320000020E9F73197AF01481B590BBC0185E26A
:1003300091E00C945F0080E090E008958F929F928E
:10034000AF92BF92CF92DF92EF92FF920F931F93E3
:10035000CF93DF93CDB7DEB7A1970FB6F894DEBF8A
:100360000FBECDBF6C01990FEE08FF08F7FE31C03C
:10037000E0912501F09126010190F081E02D6DE2E0
:1003800085E291E009958C0122273327A9012C19D8
:100390003D094E095F0919A2CE0181967C019AE0C0
:1003A000892E912CA12CB12CCA01B901A50194016F
:1003B0000E94DC03605DF70162937F012115310526
:1003C0004105510589F7CF010E948C01800F911FD3
:1003D0001DC0A701960119A28E010F5D1F4F8AE073
:1003E000C82ED12CE12CF12CCA01B901A70196012C
:1003F0000E94DC03605DF80162938F0121153105D5
:100400004105510589F7CF010E948C01A1960FB6D5
:10041000F894DEBF0FBECDBFDF91CF911F910F913A
:10042000FF90EF90DF90CF90BF90AF909F908F9014
:1004300008950E941E041F920F920FB60F9211246E
:100440002F933F934F935F936F937F938F939F93DC
:10045000AF93BF93EF93FF9385E291E00E94D500A5
:10046000FF91EF91BF91AF919F918F917F916F918C
:100470005F914F913F912F910F900FBE0F901F9062
:1004800018951F920F920FB60F9211242F938F93EE
:100490009F93EF93FF93E0913501F09136018081B6
:1004A000E0913B01F0913C0182FD12C0908180916E
:1004B0003E018F5F8F7320913F01821751F0E091D1
:1004C0003E01F0E0EB5DFE4F958F80933E0101C051
:1004D0008081FF91EF919F918F912F910F900FBE8F
:1004E0000F901F9018951F920F920FB60F92112424
:1004F0002F933F938F939F93AF93BF938091190155
:1005000090911A01A0911B01B0911C01309118012A
:100510002DE2230F2D3720F40196A11DB11D05C03A
:1005200020EB230F0296A11DB11D2093180180938B
:10053000190190931A01A0931B01B0931C018091A3
:100540001D0190911E01A0911F01B0912001019603
:10055000A11DB11D80931D0190931E01A0931F0149
:10056000B0932001BF91AF919F918F913F912F91B7
:100570000F900FBE0F901F901895789484B58260ED
:1005800084BD84B5816084BD85B5826085BD85B537
:10059000816085BD80916E00816080936E001092B5
:1005A0008100809181008260809381008091810030
:1005B00081608093810080918000816080938000C1
:1005C0008091B10084608093B1008091B00081601F
:1005D0008093B00080917A00846080937A0080914B
:1005E0007A00826080937A0080917A008E7F809377
:1005F0007A0080917A00806880937A001092C1001E
:10060000E0913501F091360182E08083E091310183
:10061000F09132011082E0913301F091340189E1CF
:10062000808310923D01E0913901F0913A0186E01A
:100630008083E0913701F09138018081806180836F
:10064000E0913701F0913801808188608083E091EA
:100650003701F0913801808180688083E091370113
:10066000F091380180818F7D8083C0E0D0E06C2FD5
:10067000CE010E94CE032196CF3FD105C1F7C09194
:100680002301D0912401CE010E94C603282F30E01F
:100690003093220120932101CE010E949E0182E12C
:1006A00091E00E948C0180912101909122010E9491
:1006B0009E0184E191E00E948C0180912301909140
:1006C00024010196811522E0920729F090932401DC
:1006D0008093230104C010922401109223010E94F0
:1006E00069014B015C0184EFC82EDD24D394E12C19
:1006F000F12C0E946901DC01CB0188199909AA0932
:10070000BB09883E9340A105B10558F081E0C81AA5
:10071000D108E108F10828EE820E23E0921EA11C08
:10072000B11CC114D104E104F10419F70E945F0166
:10073000A6CFE5E2F1E01382128288EE93E0A0E01A
:10074000B0E084839583A683B78384E091E09183AE
:10075000808385EC90E09587848784EC90E0978790
:10076000868780EC90E0918B808B81EC90E0938B7E
:10077000828B82EC90E0958B848B86EC90E0978B5B
:10078000868B118E128E138E148E0895F999FECFDA
:1007900092BD81BDF89A992780B50895262FF999C1
:1007A000FECF1FBA92BD81BD20BD0FB6F894FA9A54
:1007B000F99A0FBE01960895A1E21A2EAA1BBB1B3F
:1007C000FD010DC0AA1FBB1FEE1FFF1FA217B3071D
:1007D000E407F50720F0A21BB30BE40BF50B661F33
:1007E000771F881F991F1A9469F7609570958095F7
:1007F00090959B01AC01BD01CF0108950E940F04AB
:10080000A59F900DB49F900DA49F800D911D112464
:100810000895EE0FFF1F0590F491E02D0994A29F1B
:10082000B001B39FC001A39F700D811D1124911DC4
:10083000B29F700D811D1124911D089581E090E0FB
:0A084000F8940C942304F894FFCF01
:10084A0000000000F6005F008E003D01BF009D0021
:08085A00B10009000D0A0000C5

:1070000060C0000093C0000077C0000075C00000A1
:1070100073C0000071C000006FC000006DC00000B0
:107020006BC0000069C0000067C0000065C00000C0
:1070300063C0000061C000005FC000005DC00000D0
:107040005BC0000059C0000057C0000055C00000E0
:1070500053C0000051C000004FC000004DC00000F0
:107060004BC0000049C00000090219000101008066
:107070007D090400000100000000070581030800ED
:107080000A12011001FF000008C016DC0502010110
:107090000200010E035500530042006100730070AE
:1070A000001C037700770077002E006600690073EC
:1070B00000630068006C002E006400650004030992
:1070C000040011241FBECFEFD8E0DEBFCDBF11E01A
:1070D000A0E0B1E0EAE9F8E702C005900D92A63021
:1070E000B107D9F721E0A6E0B1E001C01D92AA34B2
:1070F000B207E1F769D1CFC383CFA82FB92F80E0C2
:1071000090E041E050EA609530E009C02D9182277F
:107110009795879510F084279527305EC8F36F5FA9
:10712000A8F30895EADF8D939D930895CF93CFB789
:10713000CF93C3954C9BE9F74C9B09C04C9B07C070
:107140004C9B05C04C9B03C04C9B01C0A3C0DF936C
:10715000C0912D01DD27CC5CDE4F4C9B02C0DF913E
:10716000EBCF2F930F931F9309B12FEF04FB20F95F
:107170004F933F9319B14FEF012704FB21F93BE0F7
:1071800031C04E7F012F19B1216028C0102F4D7FD3
:107190002260000009B129C04B7F2460012F00004C
:1071A00019B12BC019B1477F28602AC04F7E09B1A1
:1071B00020612CC04F7D19B120622FC04F7B09B1D7
:1071C000206432C0422709B149934FEF00001027D5
:1071D00014FB20F919B11471C9F1297F91F201272B
:1071E00004FB21F909B1237F89F2315058F11027AE
:1071F00014FB22F919B1277E79F2012704FB23F948
:107200002F7C81F209B1102714FB24F92F7971F238
:1072100000C019B1012704FB25F92F7359F200C0F2
:1072200009B1102714FB26F9223040F200C019B131
:10723000012704FB27F9243028F64F77206819B17D
:107240000000F9CF11E01CBB002719C03B5031955D
:10725000C31BD04011E01CBB0881033CF9F00B3488
:10726000E9F020912B011981110F1213EDCF4A8102
:10727000441F093641F10D3211F0013E29F7009308
:1072800032013F914F911F910F912F91DF91CCB31C
:10729000C0FD4FCFCF91CFBFCF9118952091320134
:1072A000222379F310913001112369F534306AF10A
:1072B0003093300120932C0110912D013BE0311BC4
:1072C00030932D0122C0009130010130E4F40AE531
:1072D0004F7049F43091010134FD19C00093010150
:1072E000C4E1D1E018C030911F0134FD10C00093FB
:1072F0001F01C0E2D1E00FC02795A8F45150A9F4B6
:10730000220F0000F9CF4AE503C042ED01C0432F30
:10731000C4E1D0E032E01AB114615C9A1AB90BB141
:1073200020E414E15F93012756E00BB9279520F480
:10733000515021F4220FF9CF012756E000003B5AAB
:107340000BB9D0F2279528F4515029F4220F0000F0
:10735000F9CF012756E027950BB920F4515021F4BD
:10736000220FF9CF012756E0299133230BB921F6DB
:107370000B7E10913101110FC651D0400BB911F0A5
:1073800010932B0111E01CBB00611AB11B7E402F32
:107390004B7E5F9100C000C00BB91AB94BB971CFD9
:1073A000109212011092850010928400E1E8F0E042
:1073B000808185608083089510921201E1E8F0E0F9
:1073C0008081887F8083089588E10FB6F894809348
:1073D0006000109260000FBE219A299842983A9A54
:1073E0005B9A14BE81E085BF82E085BF8091690011
:1073F000826080936900E89A8BE4809320018AE59B
:1074000080931F01549A80E0815041F0A895E7EBEA
:10741000FBE03197F1F700C00000F6CF549880915F
:10742000810088608093810086EC9DE290938900C2
:10743000809388007894F12CE12C10913001135046
:1074400017FD6BC180912D01CCE0D0E0C81BD109A4
:10745000CC5CDE4F80912C018D3209F0D2C0183007
:1074600009F059C183EC809314018AE580930101EE
:10747000109213018881807609F446C09DDF86E072
:1074800091E090932F0180932E0129812330C9F43C
:107490009B818C812A81203339F48370E82FF0E0BE
:1074A000EE5FFE4F808109C0203A11F4DED105C0A5
:1074B000203C11F46D81E1D180E08093090114E05A
:1074C00021C02530F1F08CEF820F863098F48A814C
:1074D0009B819093100180930F01293081F08E8160
:1074E00080930E018D81827080930D0120930C0199
:1074F0001FEF08C0223019F481E08093110110E0E1
:1075000001C011E04DDF6AC09A8110921D0189818E
:10751000811106C010921E018DE191E012E05AC067
:10752000853019F49093310152C08630D1F58B81AA
:10753000813041F481E890E790932F0180932E01F0
:1075400012E12BC0823041F488E690E790932F013E
:1075500080932E0119E121C08330F1F4911108C00C
:107560008DEB90E790932F0180932E0114E015C0CE
:10757000913041F481EA90E790932F0180932E019E
:107580001CE10BC0923041F483E990E790932F0106
:1075900080932E011EE001C010E080E4809313016F
:1075A0001DC0883069F0893019F4909333010FC001
:1075B0008A3049F08B3059F48BE48093200107C066
:1075C00083E391E002C08DE191E011E003C08DE121
:1075D00091E010E090932F0180932E011F3F39F42A
:1075E000888187FD1E8180E88093130107C08F8109
:1075F000811104C08E81811708F4182F10930001A7
:107600008AC08091130187FF86C0D6DE80910E016B
:10761000D12E811708F4D82E8D1980930E01CC2419
:10762000C3948111C12C80910C01873010F4DE01CC
:107630003DC0BC2E0C2F1D2F802F8B198D1508F0EF
:1076400039C0F80161918F0180910F019091100173
:107650009C012F5F3F4F3093100120930F010DD1FC
:10766000EBCF80910F01909110018F779927892B93
:1076700039F1F894E0910F01F09110018D919D91F5
:1076800021E00C0120935700E89511247894809113
:107690000F019091100102969093100180930F01B9
:1076A0008F779927892B11F1C11018C08A2F8C1B55
:1076B0008D15B8F275DECC2071F1109200012BC04F
:1076C000F894E0910F01F091100183E0809357004E
:1076D000E895789407B600FCFDCFCBCF8A2F8C1BA2
:1076E0008D1520F380910D01882301F3F894E0912A
:1076F0000F01F0911001329785E080935700E895D3
:10770000789407B600FCFDCFF89481E18093570090
:10771000E8957894CBCF109230018091010184FFDD
:107720006FC0809100018F3F09F46AC0D82E893064
:1077300010F098E0D92E8D198093000180911401EA
:1077400098E8892780931401DD2009F44CC08091CA
:10775000130187FF2AC030DE80910E018D1508F4D9
:10776000D82E8D1980930E01C0900C01C5E1D1E097
:1077700085E191E0FC2FF81BFD15A8F400910F01A5
:107780001091100186E08C1518F4C8016ED002C06B
:10779000F8018491888321960F5F1F4F1093100189
:1077A00000930F01E5CFFCDD1EC0E0912E01F091AA
:1077B0002F0186FF0BC085E191E0DC0124912D9320
:1077C00031962D2D280F2A13F9CF09C085E191E0BC
:1077D000DC0121912D932D2D280F2A13FACFF09340
:1077E0002F01E0932E016D2D85E191E09BDC84E07B
:1077F0008D0D8C3019F09FEF909300018093010163
:1078000084E199B1947131F48150D9F7109231012A
:1078100010922B015F9A8FEF8E0D51F4FA9441F480
:10782000909112019F5F909312019AB190589AB96A
:10783000909112019E3158F490911101911102C062
:10784000E82EFBCD8EEF8E0DD9F7FA94C9F7109282
:107850008100F8941DBA1092690081E085BF15BEC1
:10786000E0910A01F0910B010995F999FECF92BDC3
:1078700081BDF89A992780B50895262FF999FECFF2
:107880001FBA92BD81BD20BD0FB6F894FA9AF99A3D
:0A7890000FBE01960895F894FFCF93
:06789A00FF5A1E950F00CD
:040000030000700089
:00000001FF