:100000000C94A6000C94CE000C94CE000C94CE0060
:100010000C94CE000C94CE000C94CE000C94CE0028
:100020000C94CE000C94CE000C94CE000C94CE0018
:100030000C94CE000C94CE000C94CE000C94CE0008
:100040000C94DB040C94CE000C9423030C94FD025E
:100050000C94CE000C94CE000C94CE000C94CE00E8
:100060000C94F9050C94CE000204086269617320B7
:10007000783D006D670A00097A3D0009793D00620C
:1000800069617320783D004552523A20466C754DA7
:100090004D4138363578206E6F7420707265736507
:1000A0006E742100636F6E76466163743D0048692B
:1000B000646E7365656B2045617274687175616B00
:1000C0006520646574656374696F6E2F7072656412
:1000D0006974696F6E0A0053494E474C45200044CD
:1000E0004F55424C452000746170200009207A3D34
:1000F000000920793D00534C4545502F4143544958
:1001000056450A0000000000250028002B000404CA
:1001100004040404040402020202020203030303AF
:10012000030301020408102040800102040810208B
:100130000102040810200000000800020100000372
:1001400004070000000000000000270711241FBE64
:10015000CFEFD8E0DEBFCDBF11E0A0E0B1E0E2E339
:10016000F6E102C005900D92A634B107D9F722E05E
:10017000A6E4B1E001C01D92A73BB207E1F710E091
:10018000C6EAD0E004C02197FE010E94FD0AC53AEC
:10019000D107C9F70E9460070C94170B0C9400005C
:1001A0000F931F93CF93DF938C01C0E0D0E0F80151
:1001B000EC0FFD1F6491662371F0E091CA01F0918C
:1001C000CB010190F081E02D8AEC91E00995892B1B
:1001D00011F02196ECCFCE01DF91CF911F910F91BD
:1001E000089590E0FC01EA5CFE4F2491FC01EE5D75
:1001F000FE4F3491FC01E25FFE4FE491EE23B1F13A
:10020000222339F1233091F038F42130A9F0223043
:1002100001F584B58F7D12C0273091F02830A1F010
:100220002430B9F4809180008F7D03C080918000DC
:100230008F77809380000DC084B58F7784BD09C00F
:100240008091B0008F7703C08091B0008F7D809344
:10025000B000F0E0EE0FFF1FEC5FFE4FA591B491F0
:100260008FB7F894EC913E2B3C938FBF0895CF92BB
:10027000DF92EF92FF920F931F93CF93DF936C0166
:100280007A018B01C0E0D0E0CE15DF0589F0D801FE
:100290006D918D01D601ED91FC910190F081E02DE1
:1002A000C6010995892B11F47E0102C02196ECCF7D
:1002B000C701DF91CF911F910F91FF90EF90DF90D9
:1002C000CF9008958AEC91E00E94860321E0892B6B
:1002D00009F420E0822F0895009769F0FC01019055
:1002E0000020E9F73197AF01481B590BBC018AEC9C
:1002F00091E00C94370180E090E008950C946C013B
:100300008F929F92AF92BF920F931F93CF93DF93E1
:10031000CDB7DEB7A1970FB6F894DEBF0FBECDBF45
:1003200019A2423008F44AE08E010F5D1F4F842E5F
:10033000912CA12CB12CA50194010E94B10AE62FA9
:10034000B901CA0101501109EA3014F4E05D01C09D
:10035000E95CD801EC93232B242B252B61F7C801F2
:100360000E946C01A1960FB6F894DEBF0FBECDBF00
:10037000DF91CF911F910F91BF90AF909F908F9081
:100380000895CF92DF92EF92FF92CF93DF9397FF82
:1003900021C06B017C01E091CA01F091CB01019079
:1003A000F081E02D6DE28AEC91E00995EC01662781
:1003B0007727CB016C197D098E099F094AE00E94BD
:1003C00080018C0F9D1FDF91CF91FF90EF90DF9008
:1003D000CF9008954AE0DF91CF91FF90EF90DF90AA
:1003E000CF900C9480010E94120BEF92FF920F931A
:1003F0001F93CF93DF93EC0181E0888F9B8D8C8DD1
:10040000981305C0E889F989808185FD24C0F62EFE
:100410000B8D10E00F5F1F4F0F731127E02E8C8D97
:10042000E8120CC00FB607FCFACFE889F989808181
:1004300085FFF5CFCE010E948004F1CF8B8DFE01A8
:10044000E80FF11DE35AFF4FF0820B8FEA89FB8919
:100450008081806207C0EE89FF896083E889F9891D
:1004600080818064808381E090E0DF91CF911F9153
:100470000F91FF90EF900895CF93DF93EC01888D5B
:100480008823C9F0EA89FB89808185FD05C0A88998
:10049000B9898C9186FD0FC00FB607FCF5CF80811E
:1004A00085FFF2CFA889B9898C9185FFEDCFCE0168
:1004B0000E948004E7CFDF91CF9108959091B2011F
:1004C0009111FCCF91E09093B2019093B1012FEF85
:1004D0002093B0011092AF01280F2093AE019093AA
:1004E000AD019091AD019A639093AD019091AC01F3
:1004F000913061F41092AC019091AD019093BB00EA
:100500009091BC0093FDF8CF95EC01C095EE9093CF
:10051000BC009091B2019130E1F39091AF01981736
:1005200010F48091AF01ACE8B1E02CE631E0F901C4
:100530009E2F921B981718F49D919193F9CF0895CF
:10054000382F20916B0190916A01213208F049C047
:100550008091B2018111FCCF42E04093B20130930F
:10056000B1013FEF3093B0011092AF012093AE0183
:10057000AAE4B1E04CE851E0FA013E2F341B3217F7
:1005800018F43D913193F9CF1092AD012091AD0156
:10059000990F922B9093AD019091AC01913061F441
:1005A0001092AC019091AD019093BB009091BC0072
:1005B00093FDF8CF95EC01C095EE9093BC0090911F
:1005C000B2019230E1F39091B0019F3F79F08091B8
:1005D000B001803241F08091B001803331F084E08D
:1005E00005C081E003C082E001C083E010924901B0
:1005F00010926B011092480108951F920F920FB64E
:100600000F9211242F933F934F935F936F937F9398
:100610008F939F93AF93BF93EF93FF938AEC91E0F7
:100620000E948004FF91EF91BF91AF919F918F91B4
:100630007F916F915F914F913F912F910F900FBEDE
:100640000F901F9018951F920F920FB60F921124C2
:100650002F938F939F93EF93FF93E091DA01F091A3
:10066000DB018081E091E001F091E10182FD12C0A7
:1006700090818091E3018F5F8F732091E401821755
:1006800051F0E091E301F0E0E653FE4F958F809347
:10069000E30101C08081FF91EF919F918F912F9194
:1006A0000F900FBE0F901F901895FC01538D448D35
:1006B000252F30E0842F90E0821B930B541710F00D
:1006C000CF96089501970895FC01918D828D98171A
:1006D00061F0828DDF01A80FB11D5D968C91928D26
:1006E0009F5F9F73928F90E008958FEF9FEF089523
:1006F000FC01918D828D981731F0828DE80FF11DEC
:10070000858D90E008958FEF9FEF0895FC01918D06
:10071000228D892F90E0805C9F4F821B91098F73FF
:100720009927089580E090E0892B29F00E946201CA
:1007300081110C94000008959FB7F8944091B30282
:100740005091B4026091B5027091B60286B5A89B33
:1007500006C08F3F21F04F5F5F4F6F4F7F4F9FBFAE
:10076000762F652F542F44279A01AB01280F311D96
:10077000411D511DA5E0B0E00E94F20A089580914C
:10078000460190E020914701821B9109089585ED73
:100790008093BC008091BC0084FDFCCF1092B2011C
:1007A000089540918902262F30E0240F311D213217
:1007B0003105DCF42091B2012430C9F4FC0180E061
:1007C00090E0861758F4309189022191DC01A959F3
:1007D000BD4FA30FB11D2C930196F3CF80918902D9
:1007E000680F6093890280E0089581E0089582E0B7
:1007F00008950895E091470180914601E81730F48B
:10080000F0E0E459FE4F808190E008958FEF9FEF74
:1008100008959091470180914601981750F4E92F6F
:10082000F0E0E459FE4F208130E09F5F9093470154
:1008300002C02FEF3FEFC9010895CF92DF92EF92F0
:10084000FF920F931F93CF93DF937C01262F972F57
:100850008A0180914801882391F0C62FD72F6E011D
:10086000C40ED51ECC15DD0571F06991D701ED914F
:10087000FC910190F081E02DC7010995F3CF642F21
:10088000822F0E94D103C801DF91CF911F910F9158
:10089000FF90EF90DF90CF900895CF93DF931F925A
:1008A000CDB7DEB76983209148012223D1F0209192
:1008B0006B01203240F021E030E0FC0133832283E1
:1008C00080E090E015C080914901E82FF0E0E65B00
:1008D000FE4F998190838F5F8093490180936B01D4
:1008E00005C061E0CE0101960E94D10381E090E055
:1008F0000F90DF91CF910895089580E090E00895E2
:10090000FC01848DDF01A80FB11DA35ABF4F2C91AC
:10091000848D90E001968F739927848FA689B7897B
:100920002C93A089B1898C9180648C93938D848D54
:10093000981306C00288F389E02D80818F7D808323
:1009400008958F929F92AF92BF92CF92DF92EF92D3
:10095000FF926B017C010E949C034B015C01C1145E
:10096000D104E104F104F1F00E949C03DC01CB010D
:1009700088199909AA09BB09883E9340A105B105C8
:1009800070F321E0C21AD108E108F10888EE880E60
:1009900083E0981EA11CB11CC114D104E104F10430
:1009A00019F7DDCFFF90EF90DF90CF90BF90AF9021
:1009B0009F908F9008951F920F920FB60F9211245F
:1009C0002F933F938F939F93AF93BF938091AF02E9
:1009D0009091B002A091B102B091B2023091AE02FA
:1009E0002DE2230F2D3720F40196A11DB11D05C066
:1009F00020EB230F0296A11DB11D2093AE02809320
:100A0000AF029093B002A093B102B093B202809172
:100A1000B3029091B402A091B502B091B6020196D2
:100A2000A11DB11D8093B3029093B402A093B502AF
:100A3000B093B602BF91AF919F918F913F912F914B
:100A40000F900FBE0F901F90189591E09093480162
:100A50009DE190936A011092490110926B01682FF9
:100A600083EB91E00E944D0480E00E94A00281E0AF
:100A70000E945E02109247018093460183EB91E051
:100A80000E9409040895CF93C62F91E090934801E6
:100A90009DE190936A011092490110926B01682FB9
:100AA00083EB91E00E944D046C2F83EB91E00E9458
:100AB0004D0481E0CF910C94A0020F931F93CF932C
:100AC000DF93CDB7DEB72C970FB6F894DEBF0FBE1D
:100AD000CDBF81E0809348018DE180936A0110923F
:100AE000490110926B0161E083EB91E00E944D049B
:100AF00080E00E94A00286E00E945E021092470100
:100B00008093460110E0909146018091470198172B
:100B100079F001E0010F83EB91E00E940904E1E02C
:100B2000F0E0EC0FFD1FE10FF11D8083102FEBCFE4
:100B30004B8150E0542F44278C81482B94E05595ED
:100B400047959A95E1F74F5F5F4F6D8170E0762F83
:100B500066278E81682B34E0759567953A95E1F7A5
:100B60006F5F7F4F298130E0322F22278A81282B27
:100B7000F4E035952795FA95E1F72F5F3F4F3887D9
:100B80002F835A8749877C876B8738855A857C8570
:100B900080E090E02C960FB6F894DEBF0FBECDBF7C
:100BA000DF91CF911F910F910895CF93DF9300D0E4
:100BB00000D000D0CDB7DEB70E945D0580E026965C
:100BC0000FB6F894DEBF0FBECDBFDF91CF910C946E
:100BD00025058AE20E9425058160682F8AE20C942F
:100BE00043058AE20E9425058E7F682F8AE20C94D5
:100BF00043051F920F920FB60F9211242F933F932C
:100C00004F935F936F937F938F939F93AF93BF9314
:100C1000EF93FF938091B900887F803609F49CC0E0
:100C200068F5883209F45BC090F4803109F454C04F
:100C300038F4882309F4F6C0883009F44DC0F6C0B2
:100C4000883109F44CC0803209F45DC0EFC08034B3
:100C500009F468C048F4803309F455C0883309F0BA
:100C6000E5C08093B001D8C0803509F44FC0883505
:100C700009F45DC0883409F0D9C0D6C0883909F4B8
:100C8000C7C0A8F4883709F467C038F4883609F477
:100C900063C0803709F460C0C9C0883809F4B8C09F
:100CA000803909F45FC0803809F0C0C05BC0803B68
:100CB00009F486C038F4803A09F466C0883A09F429
:100CC0007FC0B4C0803C09F4A7C0883C09F4A4C02C
:100CD000883B09F48AC0AAC08091AD0110C09091F0
:100CE000AF018091AE01981770F5E091AF0181E0FE
:100CF0008E0F8093AF01F0E0E457FE4F8081809328
:100D0000BB0085EC86C08093B0018EC0E091AF013E
:100D100081E08E0F8093AF018091BB00F0E0E4573B
:100D2000FE4F80839091AF018091AE016EC0E09143
:100D3000AF0181E08E0F8093AF018091BB00F0E0A6
:100D4000E457FE4F80838091B10181116DC081E035
:100D50008093AC0184EA61C083E08093B201109279
:100D6000AD02CFCF8091AD02803208F051C0E0914A
:100D7000AD0281E08E0F8093AD028091BB00F0E068
:100D8000E357FD4F8083BDCF85EC8093BC0010926C
:100D9000B2018091AD02803230F4E091AD02F0E01A
:100DA000E357FD4F10826091AD0270E0E0918B023D
:100DB000F0918C028DE892E009951092AD0236C058
:100DC00084E08093B20110928A0210928902E0912D
:100DD0008702F0918802099580918902811105C0EE
:100DE00081E08093890210926702E0918A0281E09B
:100DF0008E0F80938A02F0E0E959FD4F8081809345
:100E0000BB0090918A0280918902981708F479CFEB
:100E100085E88093BC000AC085EC8093BC001092EA
:100E2000B20104C01092B0010E94C703FF91EF917C
:100E3000BF91AF919F918F917F916F915F914F91F2
:100E40003F912F910F900FBE0F901F901895EAECD5
:100E5000F1E01382128288EE93E0A0E0B0E0848398
:100E60009583A683B78326E031E03183208325EC88
:100E700030E03587248724EC30E03787268720EC64
:100E800030E0318B208B21EC30E0338B228B22EC55
:100E900030E0358B248B26EC30E0378B268B118E9F
:100EA000128E138E148EE3EBF1E013821282848390
:100EB0009583A683B78388E191E091838083089529
:100EC000CF93DF9300D000D000D0CDB7DEB77894B9
:100ED00084B5826084BD84B5816084BD85B582603F
:100EE00085BD85B5816085BD80916E0081608093F0
:100EF0006E00109281008091810082608093810059
:100F00008091810081608093810080918000816068
:100F1000809380008091B10084608093B1008091C3
:100F2000B00081608093B00080917A0084608093EB
:100F30007A0080917A00826080937A0080917A00B2
:100F40008E7F80937A0080917A00806880937A0007
:100F50001092C100E091DA01F091DB0182E0808320
:100F6000E091D601F091D7011082E091D801F09183
:100F7000D90189E180831092E201E091DE01F091D4
:100F8000DF0186E08083E091DC01F091DD0180816A
:100F900080618083E091DC01F091DD0180818860D7
:100FA0008083E091DC01F091DD01808180688083A5
:100FB000E091DC01F091DD0180818F7D808388E309
:100FC00091E00E947E0168EC70E080E090E00E9479
:100FD000A1048EEA90E00E94D00087E090E0909318
:100FE000010180930001E8E6F0E0A491B0E020E484
:100FF00032E44FE050E00E94F20A6B017C016BE0AA
:10100000F694E794D794C7946A95D1F7D092C0012B
:10101000C092BF0184EA90E00E94D000C701B601EF
:10102000882799274AE00E9480018AE291E00E9485
:101030007E011092470110924601109249011092D0
:101040006B011092B20181E08093B1011092AC016A
:1010500082E10E94F10083E10E94F1008091B900D9
:101060008E7F8093B9008091B9008D7F8093B90005
:1010700084E38093B80085E48093BC0060E48BE255
:101080000E94430562E070E080E090E00E94A104CD
:101090008DE00E9425058A3409F05AC20E94D505C8
:1010A0000E94F10561E08AE20E94430560E08EE063
:1010B0000E9443050E94E90560ED77E080E090E042
:1010C0000E94A1040E94D50504E610E0412C512C99
:1010D0003201812C912C5401C12CD12C76010E941B
:1010E0005D0529833A834B835C836D837E8389818D
:1010F0009A81092E000CAA0BBB0BC80ED91EEA1E42
:10110000FB1E8B819C81092E000CAA0BBB0B880E49
:10111000991EAA1EBB1E8D819E81092E000CAA0B52
:10112000BB0B480E591E6A1E7B1E6FE070E080E00C
:1011300090E00E94A1040150110989F6C701B6018F
:1011400024E630E040E050E00E94D30A69017A01D1
:10115000C501B40124E630E040E050E00E94D30A2B
:1011600049015A01C301B20124E630E040E050E0F9
:101170000E94D30A29013A01121613061406150615
:101180002CF484E0581A6108710804C084E0580EF9
:10119000611C711C8BE690E00E94D000C701B60173
:1011A0000E94C1018EE291E00E947E01C501B4015E
:1011B0000E94C10182E391E00E947E01C301B2015D
:1011C0000E94C10186E391E00E947E010E94F10528
:1011D00061E070E080E090E00E94A104662777273C
:1011E000CB016C197D098E099F0942E0C42ED12CD8
:1011F000E12CF12CA70196010E94D30A622F8FE205
:101200000E94430561E070E080E090E00E94A1044C
:1012100066277727CB01681979098A099B09A701F5
:1012200096010E94D30A622F80E30E94430561E089
:1012300070E080E090E00E94A10466277727CB0150
:101240006419750986099709A70196010E94D30AB6
:10125000622F81E30E94430561E070E080E090E04E
:101260000E94A1040E94E90581E30E942505182F30
:1012700080E30E942505082F8FE20E942505F82EA5
:101280008FE790E00E94D0006F2D660F770B072E3E
:10129000000C880B990B0E94C1018BE790E00E9423
:1012A000D000602F660F770B072E000C880B990B70
:1012B0000E94C10187E790E00E94D000612F660F75
:1012C000770B072E000C880B990B0E94C10183E756
:1012D00090E00E94D0000E94F10563E06F7E6F7D78
:1012E0008FE00E94430560E060618EE00E9443054C
:1012F0008AE20E942505609100016770660F660F03
:10130000660F606C8AE20E94430562E08BE20E94F5
:10131000430560E06160646060616D7F677F6F7D41
:101320006F77606481E20E94430560E283E20E947D
:10133000430560E284E20E94430560E285E20E9488
:10134000430560E386E20E94430560EA87E20E946B
:1013500043056FEF88E20E94430568ED85E10E9436
:10136000430568E0606887E10E94430564E088E126
:101370000E9443056EE18DE10E94430563E08FE129
:101380000E94430568E080E20E9443056DEB8DE218
:101390000E9443050E94E90560ED77E080E090E05F
:1013A0000E94A1041092C9010E94D505EE24EA947E
:1013B000FE2C8CE00E942505182F882329F08091AF
:1013C000C90118131093C90117FF07C086EF90E0F9
:1013D0000E94D0008BE00E9425058091C70190916A
:1013E000C80113FD05C0803127E2920708F0ADC0A7
:1013F000892B09F057C082E20E942505182F87FF2C
:1014000051C087EE90E00E94D00013FF03C08FED23
:1014100090E002C087ED90E00E94D00014FF16C05B
:1014200010FD05C038E2C32E31E0D32E04C026E201
:10143000C22E21E0D22E8AE391E00E947E01C601F5
:101440000E947E018CE391E00E947E0115FF16C090
:1014500011FD05C098E2C92E91E0D92E04C086E2A4
:10146000C82E81E0D82E8EE391E00E947E01C60155
:101470000E947E018CE391E00E947E0116FF0EC067
:1014800012FD03C008E211E002C006E211E080E4B0
:1014900091E00E947E01C8010E947E0188E391E0F4
:1014A0000E947E0180E00E94250583FF3CC00E94CF
:1014B0005D052093C1013093C2014093C301509355
:1014C000C4016093C5017093C6010091C5011091DC
:1014D000C601C090C301D090C401A090C101B090DA
:1014E000C20182E491E00E947E01B501BB0C880B31
:1014F000990B0E94C10181EF90E00E94D000B601DB
:10150000DD0C880B990B0E94C1018CEE90E00E94CB
:10151000D000B801110F880B990B0E94C10188E31C
:1015200091E00E947E018091C7019091C8010196CF
:10153000803127E2920729F09093C8018093C70178
:1015400004C0F092C801E092C7010E94920331CF1B
:1015500087E890E00E94D00060E27EE480E090E0C6
:1015600095CDA1E21A2EAA1BBB1BFD010DC0AA1F1F
:10157000BB1FEE1FFF1FA217B307E407F50720F0FC
:10158000A21BB30BE40BF50B661F771F881F991F77
:101590001A9469F760957095809590959B01AC01C0
:1015A000BD01CF010895052E97FB1EF400940E9403
:1015B000EA0A57FD07D00E94B10A07FC03D04EF497
:1015C0000C94EA0A50954095309521953F4F4F4F26
:1015D0005F4F089590958095709561957F4F8F4FDF
:1015E0009F4F08950E94030BA59F900DB49F900DEF
:1015F000A49F800D911D11240895EE0FFF1F0590EB
:10160000F491E02D0994A29FB001B39FC001A39F64
:10161000700D811D1124911DB29F700D811D11242B
:10162000911D089581E090E0F8940C94170BF894C4
:02163000FFCFEA
:10163200040000000000F501370155033C02860357
:1016420064037803000000004D041D047D04F903C7
:10165200BF030904FA032D002B0075670A000979FC
:101662003D00097A3D006D670A00580020005900CC
:061672005A00783D000063
:00000001FF
