:100000000C9462000C944C040C9425040C948A000B
:100010000C948A000C948A000C948A000C948A0038
:100020000C948A000C948A000C948A000C948A0028
:100030000C948A000C948A000C948A000C948A0018
:100040000C94DB030C948A000C94A9030C94830396
:100050000C948A000C948A000C948A000C948A00F8
:100060000C9473040C948A00000000002400270004
:100070002A0000000000250028002B0000000000DE
:1000800023002600290004040404040404040202DA
:100090000202020203030303030301020408102007
:1000A0004080010204081020010204081020000012
:1000B0000008000201000003040700000000000027
:1000C0000000F10911241FBECFEFD8E0DEBFCDBF85
:1000D00011E0A0E0B1E0ECEEF4E102C005900D9279
:1000E000AA34B107D9F722E0AAE4B1E001C01D9219
:1000F000A53CB207E1F710E0C2E6D0E004C02197CA
:10010000FE010E945A0AC136D107C9F70E94E306D0
:100110000C94740A0C9400008091A70190E0209147
:10012000A801821B91090895CF92DF92EF92FF926E
:100130000F931F93CF93DF936C017A018B01C0E083
:10014000D0E0CE15DF0589F0D8016D918D01D60183
:10015000ED91FC910190F081E02DC6010995892B6C
:1001600011F47E0102C02196ECCFC701DF91CF913F
:100170001F910F91FF90EF90DF90CF900895FC01B9
:10018000538D448D252F30E0842F90E0821B930BFC
:10019000541710F0CF96089501970895FC01918DA2
:1001A000828D981761F0828DDF01A80FB11D5D96D9
:1001B0008C91928D9F5F9F73928F90E008958FEF47
:1001C0009FEF0895FC01918D828D981731F0828DFB
:1001D000E80FF11D858D90E008958FEF9FEF089552
:1001E000FC01918D228D892F90E0805C9F4F821BB6
:1001F00091098F739927089584E192E00E94F0009D
:1002000021E0892B09F420E0822F0895FC01848DE0
:10021000DF01A80FB11DA35ABF4F2C91848D90E030
:1002200001968F739927848FA689B7892C93A0890B
:10023000B1898C9180648C93938D848D981306C0C2
:100240000288F389E02D80818F7D80830895EF926D
:10025000FF920F931F93CF93DF93EC0181E0888F80
:100260009B8D8C8D981305C0E889F989808185FD67
:1002700024C0F62E0B8D10E00F5F1F4F0F73112758
:10028000E02E8C8DE8120CC00FB607FCFACFE8897F
:10029000F989808185FFF5CFCE010E940601F1CF5B
:1002A0008B8DFE01E80FF11DE35AFF4FF0820B8F9B
:1002B000EA89FB898081806207C0EE89FF896083BB
:1002C000E889F98980818064808381E090E0DF9112
:1002D000CF911F910F91FF90EF900895CF93DF93EF
:1002E000EC01888D8823C9F0EA89FB89808185FD2E
:1002F00005C0A889B9898C9186FD0FC00FB607FC8F
:10030000F5CF808185FFF2CFA889B9898C9185FFCF
:10031000EDCFCE010E940601E7CFDF91CF91089586
:1003200080E090E0892B29F00E94FC0081110C9460
:1003300000000895833081F028F4813099F08230F4
:10034000A1F008958730A9F08830B9F08430D1F455
:10035000809180008F7D03C0809180008F77809393
:100360008000089584B58F7702C084B58F7D84BDE9
:1003700008958091B0008F7703C08091B0008F7D89
:100380008093B0000895CF93DF93282F30E0F901D8
:10039000E255FF4F8491F901E656FF4FD491F901E0
:1003A000EA57FF4FC491CC2391F081110E949A012A
:1003B000EC2FF0E0EE0FFF1FE458FF4FA591B49132
:1003C000EC91ED2381E090E021F480E002C080E038
:1003D00090E0DF91CF9108951F93CF93DF93282F63
:1003E00030E0F901E255FF4F8491F901E656FF4FE5
:1003F000D491F901EA57FF4FC491CC23C9F0162FCD
:1004000081110E949A01EC2FF0E0EE0FFF1FEE58D1
:10041000FF4FA591B4918FB7F894111105C09C912D
:10042000ED2FE095E92302C0EC91ED2BEC938FBF0B
:10043000DF91CF911F910895CF93DF9390E0FC015E
:10044000E656FF4F2491FC01EA57FF4F8491882321
:1004500061F190E0880F991FFC01E859FF4FC591A9
:10046000D491FC01EE58FF4FA591B491611109C0E0
:100470009FB7F8948881209582238883EC912E235E
:100480000BC0623061F49FB7F8943881822F809559
:1004900083238883EC912E2B2C939FBF06C08FB7AC
:1004A000F894E8812E2B28838FBFDF91CF91089598
:1004B0009FB7F894409196015091970160919801EF
:1004C0007091990186B5A89B06C08F3F21F04F5FC0
:1004D0005F4F6F4F7F4F9FBF762F652F542F44275D
:1004E0009A01AB01280F311D411D511DA5E0B0E05F
:1004F0000E944F0A08958F929F92AF92BF92CF921F
:10050000DF92EF92FF926B017C010E9458024B0137
:100510005C01C114D104E104F104F1F00E9458021D
:10052000DC01CB0188199909AA09BB09883E9340CF
:10053000A105B10570F321E0C21AD108E108F10864
:1005400088EE880E83E0981EA11CB11CC114D10452
:10055000E104F10419F7DDCFFF90EF90DF90CF9029
:10056000BF90AF909F908F900895089585ED8093F0
:10057000BC008091BC0084FDFCCF1092EF01089577
:1005800040916C01262F30E0240F311D21323105BE
:10059000DCF42091EF012430C9F4FC0180E090E00C
:1005A000861758F430916C012191DC01A65BBE4F97
:1005B000A30FB11D2C930196F3CF80916C01680FAE
:1005C00060936C0180E0089581E0089582E00895D1
:1005D0000895E091A8018091A701E81730F4F0E0B8
:1005E000E755FE4F808190E008958FEF9FEF0895CB
:1005F0009091A8018091A701981750F4E92FF0E09D
:10060000E755FE4F208130E09F5F9093A80102C024
:100610002FEF3FEFC9010895CF92DF92EF92FF9243
:100620000F931F93CF93DF937C01262F972F8A017F
:100630008091F001882391F0C62FD72F6E01C40E50
:10064000D51ECC15DD0571F06991D701ED91FC91B6
:100650000190F081E02DC7010995F3CF642F822F1F
:100660000E94C002C801DF91CF911F910F91FF90AE
:10067000EF90DF90CF900895CF93DF931F92CDB787
:10068000DEB769832091F0012223D1F0209113027B
:10069000203240F021E030E0FC013383228380E00F
:1006A00090E015C08091F101E82FF0E0EE50FE4F90
:1006B000998190838F5F8093F1018093130205C02D
:1006C00061E0CE0101960E94C00281E090E00F90AF
:1006D000DF91CF910895089580E090E0089588E239
:1006E00091E00E94A10589E391E00E94A10587E0C5
:1006F0000E94C30161E0892B09F060E087E00C945F
:10070000EC010E946F0A1F920F920FB60F921124F4
:100710002F933F934F935F936F937F938F939F9309
:10072000AF93BF93EF93FF9384E192E00E940601A1
:10073000FF91EF91BF91AF919F918F917F916F91B9
:100740005F914F913F912F910F900FBE0F901F908F
:1007500018951F920F920FB60F9211242F938F931B
:100760009F93EF93FF93E0912402F0912502808103
:10077000E0912A02F0912B0282FD12C090818091BB
:100780002D028F5F8F7320912E02821751F0E0911E
:100790002D02F0E0EC5EFD4F958F80932D0201C09D
:1007A0008081FF91EF919F918F912F910F900FBEBC
:1007B0000F901F9018951F920F920FB60F92112451
:1007C0002F933F938F939F93AF93BF938091920109
:1007D00090919301A0919401B09195013091910174
:1007E0002DE2230F2D3720F40196A11DB11D05C068
:1007F00020EB230F0296A11DB11D20939101809340
:10080000920190939301A0939401B09395018091EC
:10081000960190919701A0919801B091990101964C
:10082000A11DB11D8093960190939701A09398010B
:10083000B0939901BF91AF919F918F913F912F916B
:100840000F900FBE0F901F9018951F920F920FB62A
:100850000F9211242F933F934F935F936F937F9346
:100860008F939F93AF93BF93EF93FF93E091020118
:10087000F09103010995FF91EF91BF91AF919F9185
:100880008F917F916F915F914F913F912F910F9039
:100890000FBE0F901F9018951F920F920FB60F92D8
:1008A00011242F933F934F935F936F937F938F9375
:1008B0009F93AF93BF93EF93FF93E0910001F0916B
:1008C00001010995FF91EF91BF91AF919F918F9198
:1008D0007F916F915F914F913F912F910F900FBE3C
:1008E0000F901F9018951F920F920FB60F92112420
:1008F0002F933F934F935F936F937F938F939F9328
:10090000AF93BF93EF93FF938091B900887F8036B8
:1009100009F49CC068F5883209F45BC090F480311A
:1009200009F454C038F4882309F4F6C0883009F477
:100930004DC0F6C0883109F44CC0803209F45DC066
:10094000EFC0803409F468C048F4803309F455C01E
:10095000883309F0E5C08093ED01D8C0803509F4F3
:100960004FC0883509F45DC0883409F0D9C0D6C0BD
:10097000883909F4C7C0A8F4883709F467C038F487
:10098000883609F463C0803709F460C0C9C088386C
:1009900009F4B8C0803909F45FC0803809F0C0C0DC
:1009A0005BC0803B09F486C038F4803A09F466C025
:1009B000883A09F47FC0B4C0803C09F4A7C0883CE1
:1009C00009F4A4C0883B09F48AC0AAC08091CA0176
:1009D00010C09091EC018091EB01981770F5E091B7
:1009E000EC0181E08E0F8093EC01F0E0E553FE4FC7
:1009F00080818093BB0085EC86C08093ED018EC022
:100A0000E091EC0181E08E0F8093EC018091BB00BE
:100A1000F0E0E553FE4F80839091EC018091EB0173
:100A20006EC0E091EC0181E08E0F8093EC0180912B
:100A3000BB00F0E0E553FE4F80838091EE01811111
:100A40006DC081E08093C90184EA61C083E0809336
:100A5000EF0110929001CFCF80919001803208F089
:100A600051C0E091900181E08E0F809390018091C0
:100A7000BB00F0E0E059FE4F8083BDCF85EC809352
:100A8000BC001092EF0180919001803230F4E0912F
:100A90009001F0E0E059FE4F10826091900170E00B
:100AA000E0916E01F0916F0180E791E0099510925D
:100AB000900136C084E08093EF0110926D01109296
:100AC0006C01E0916A01F0916B01099580916C01D4
:100AD000811105C081E080936C0110924A01E09180
:100AE0006D0181E08E0F80936D01F0E0E65BFE4FBB
:100AF00080818093BB0090916D0180916C0198176B
:100B000008F479CF85E88093BC000AC085EC809317
:100B1000BC001092EF0104C01092ED010E94B602D9
:100B2000FF91EF91BF91AF919F918F917F916F91C5
:100B30005F914F913F912F910F900FBE0F901F909B
:100B40001895009769F0FC0101900020E9F73197B2
:100B5000AF01481B590BBC0184E192E00C94940056
:100B600080E090E00895382F2091130290911202B6
:100B7000213208F049C08091EF018111FCCF42E0A1
:100B80004093EF013093EE013FEF3093ED0110926F
:100B9000EC012093EB01A2EFB1E04BEC51E0FA0144
:100BA0003E2F341B321718F43D913193F9CF109238
:100BB000CA012091CA01990F922B9093CA0190917A
:100BC000C901913061F41092C9019091CA019093CA
:100BD000BB009091BC0093FDF8CF95EC01C095EE61
:100BE0009093BC009091EF019230E1F39091ED0170
:100BF0009F3F79F08091ED01803241F08091ED01CD
:100C0000803331F084E005C081E003C082E001C0A0
:100C100083E01092F101109213021092F0010895F6
:100C2000CF93C62F91E09093F0019DE19093120233
:100C30001092F10110921302682F81EB92E00E9452
:100C40003C036C2F81EB92E00E943C0381E0CF914A
:100C50000C94B30569E48AE20C94100660E08AE221
:100C60000C9410068F929F92AF92BF920F931F9396
:100C7000CF93DF93CDB7DEB7A1970FB6F894DEBF61
:100C80000FBECDBF19A2423008F44AE08E010F5DBD
:100C90001F4F842E912CA12CB12CA50194010E94F0
:100CA0002D0AE62FB901CA0101501109EA3014F4E6
:100CB000E05D01C0E95CD801EC93232B242B252BAC
:100CC00061F7C8010E94A105A1960FB6F894DEBF96
:100CD0000FBECDBFDF91CF911F910F91BF90AF900D
:100CE0009F908F900895CF92DF92EF92FF92CF93D3
:100CF000DF936B017C01E0911402F09115020190E9
:100D0000F081E02D6DE284E192E00995EC01662727
:100D10007727CB016C197D098E099F094AE00E9453
:100D200032068C0F9D1FDF91CF91FF90EF90DF90E7
:100D3000CF9008959091EF019111FCCF813208F08E
:100D400080E291E09093EF019093EE012FEF2093DA
:100D5000ED011092EC01280F2093EB019093CA0152
:100D60009091CA019A639093CA019091C901913000
:100D700061F41092C9019091CA019093BB009091C7
:100D8000BC0093FDF8CF95EC01C095EE9093BC00AC
:100D90009091EF019130E1F39091EC01981710F4EC
:100DA0008091EC01ABECB1E029EA31E0F9019E2F32
:100DB000921B981718F49D919193F9CF1092A80166
:100DC0008093A7010895CF93DF93CDB7DEB7279720
:100DD0000FB6F894DEBF0FBECDBF789484B58260A5
:100DE00084BD84B5816084BD85B5826085BD85B5CF
:100DF000816085BD80916E00816080936E0010924D
:100E000081008091810082608093810080918100C7
:100E10008160809381008091800081608093800058
:100E20008091B10084608093B1008091B0008160B6
:100E30008093B00080917A00846080937A008091E2
:100E40007A00826080937A0080917A008E7F80930E
:100E50007A0080917A00806880937A001092C100B5
:100E6000E0912402F091250282E08083E09120024B
:100E7000F09121021082E0912202F091230289E197
:100E8000808310922C02E0912802F091290286E0E2
:100E90008083E0912602F091270280818061808327
:100EA000E0912602F0912702808188608083E091A2
:100EB0002602F0912702808180688083E0912602DB
:100EC000F091270280818F7D80838CE391E00E94E6
:100ED000A10589E391E00E94A10561E087E00E94FD
:100EE0001C0261E089E00E941C0261E089E00E942E
:100EF000EC0164E670E080E090E00E947B021092DA
:100F0000A8011092A7011092F10110921302109201
:100F1000EF0181E08093EE011092C90161E082E16E
:100F20000E94EC0161E083E10E94EC018091B90034
:100F30008E7F8093B9008091B9008D7F8093B90036
:100F400084E38093B80085E48093BC001092BE02D5
:100F50000E942E0661E070E080E090E00E947B023B
:100F600060E08EE00E94100661E070E080E090E0BA
:100F70000E947B0269E38CE20E94100661E070E04F
:100F800080E090E00E947B026091BE028DE20E94B0
:100F9000100661E070E080E090E00E947B0260E07B
:100FA0008EE20E94100661E070E080E090E00E9416
:100FB0007B020E942A0661E070E080E090E00E94DF
:100FC0007B020E942E0661E070E080E090E00E94CB
:100FD0007B026091BE0268606093BE028DE20E9457
:100FE000100661E070E080E090E00E947B0265E125
:100FF00081E20E94100661E070E080E090E00E94D3
:101000007B0260E183E20E94100661E070E080E014
:1010100090E00E947B0260E184E20E94100661E0A1
:1010200070E080E090E00E947B0260E185E20E9437
:10103000100661E070E080E090E00E947B020E9478
:101040002A0661E070E080E090E00E947B020E944E
:101050002E0661E070E080E090E00E947B026091EB
:10106000BE0260616093BE028DE20E94100661E0E4
:1010700070E080E090E00E947B0260E481E10E94E9
:10108000100661E070E080E090E00E947B020E9428
:101090002A0661E070E080E090E00E947B020E94FE
:1010A0002E0661E070E080E090E00E947B0260919B
:1010B000BE0264606093BE028DE20E94100661E091
:1010C00070E080E090E00E947B0268EF85E10E9482
:1010D000100661E070E080E090E00E947B0263E037
:1010E00087E10E94100661E070E080E090E00E94DD
:1010F0007B020E942A0661E070E080E090E00E949E
:101100007B0260E08091BD020E941C028091BD02C2
:101110008230D8F4E82FF0E0EE0FFF1FE050FF4FD1
:101120002FE633E031832083813041F080916900E4
:101130008C7F826080936900E89A07C08091690083
:10114000837F886080936900E99AADE1FA2E8E0171
:101150000F5F1F4FB7E0EB2EE00E60E087E00E94CC
:10116000EC018091BE0284FF28C00E942E0661E03F
:1011700070E080E090E00E947B026091BE026F7E92
:101180006093BE028DE20E94100661E070E080E094
:1011900090E00E947B0260E081E10E94100661E025
:1011A00070E080E090E00E947B020E942A0661E0ED
:1011B00070E080E090E00E947B020E942A0662E0DC
:1011C00070E080E090E00E947B020E942E0662E0C8
:1011D00070E080E090E00E947B0261E089E20E9482
:1011E000100662E070E080E090E00E947B026CE11B
:1011F0008BE20E94100661E070E080E090E00E94C7
:101200007B020E942A0661E087E00E94EC01809147
:10121000BD020E94C3016091A60170E080E090E0F1
:101220004AE00E94320689E391E00E94A10581E034
:101230008093F001F09212021092F10110921302C9
:101240006CE081EB92E00E943C0380E00E94B305D9
:1012500081E090E00E949A069091A7018091A801F8
:101260009817F1F381EB92E00E94F8028093A601B7
:1012700081E08093F001F09212021092F10110923D
:10128000130260E081EB92E00E943C0380E00E9448
:10129000B30587E090E00E949A0668019091A7014B
:1012A0008091A8019817F1F381EB92E00E94F80277
:1012B000F60181936F01EE12F1CF4A8150E0542F75
:1012C00044278B81482B94E0559547959A95E1F7F3
:1012D0005093C0024093BF022C8130E0322F22276E
:1012E0008D81282B74E0359527957A95E1F7309319
:1012F000C2022093C1028E8190E0982F88276F81CF
:10130000862BF4E095958795FA95E1F79093C402C2
:101310008093C3026091A4017091A5017093A30111
:101320006093A2016091A0017091A10170939F014F
:1013300060939E0160919C0170919D0170939B014F
:1013400060939A015093A5014093A4013093A101A9
:101350002093A00190939D0180939C0188E491E0EB
:101360000E94A1056091A4017091A501072E000CB7
:10137000880B990B97FF03C00E94730603C04AE0D5
:101380000E94320688E491E00E94A1056091A001CC
:101390007091A101072E000C880B990B97FF03C0D9
:1013A0000E94730603C04AE00E94320688E491E07E
:1013B0000E94A10560919C0170919D01072E000C77
:1013C000880B990B97FF03C00E94730603C04AE085
:1013D0000E94320689E391E00E94A1050E949001DB
:1013E000BCCEE4E1F2E01382128288EE93E0A0E04A
:1013F000B0E084839583A683B78328E031E031830E
:10140000208325EC30E03587248724EC30E03787D3
:10141000268720EC30E0318B208B21EC30E0338BC1
:10142000228B22EC30E0358B248B26EC30E0378B9E
:10143000268B118E128E138E148EE1EBF2E0138246
:10144000128284839583A683B7838AE191E0918396
:1014500080838BE08093BD020895A1E21A2EAA1B1F
:10146000BB1BFD010DC0AA1FBB1FEE1FFF1FA21754
:10147000B307E407F50720F0A21BB30BE40BF50B51
:10148000661F771F881F991F1A9469F760957095DA
:10149000809590959B01AC01BD01CF0108950E94FC
:1014A000600AA59F900DB49F900DA49F800D911D83
:1014B00011240895EE0FFF1F0590F491E02D09947B
:1014C000A29FB001B39FC001A39F700D811D112485
:1014D000911DB29F700D811D1124911D089581E011
:0C14E00090E0F8940C94740AF894FFCF8C
:1014EC00B502B5020000000027019400BF006E0198
:1014FC00F000CE00E200000000003C030C036C0383
:10150C00E8028C00F802E90243616C6C696E67209A
:10151C006163634576656E74000D0A0053746172E5
:0A152C0074696E672E2E2E002C004D

:1070000060C0000093C0000077C0000075C00000A1
:1070100073C0000071C000006FC000006DC00000B0
:107020006BC0000069C0000067C0000065C00000C0
:1070300063C0000061C000005FC000005DC00000D0
:107040005BC0000059C0000057C0000055C00000E0
:1070500053C0000051C000004FC000004DC00000F0
:107060004BC0000049C00000090219000101008066
:107070007D090400000100000000070581030800ED
:107080000A12011001FF000008C016DC0502010110
:107090000200010E035500530042006100730070AE
:1070A000001C037700770077002E006600690073EC
:1070B00000630068006C002E006400650004030992
:1070C000040011241FBECFEFD8E0DEBFCDBF11E01A
:1070D000A0E0B1E0EAE9F8E702C005900D92A63021
:1070E000B107D9F721E0A6E0B1E001C01D92AA34B2
:1070F000B207E1F769D1CFC383CFA82FB92F80E0C2
:1071000090E041E050EA609530E009C02D9182277F
:107110009795879510F084279527305EC8F36F5FA9
:10712000A8F30895EADF8D939D930895CF93CFB789
:10713000CF93C3954C9BE9F74C9B09C04C9B07C070
:107140004C9B05C04C9B03C04C9B01C0A3C0DF936C
:10715000C0912D01DD27CC5CDE4F4C9B02C0DF913E
:10716000EBCF2F930F931F9309B12FEF04FB20F95F
:107170004F933F9319B14FEF012704FB21F93BE0F7
:1071800031C04E7F012F19B1216028C0102F4D7FD3
:107190002260000009B129C04B7F2460012F00004C
:1071A00019B12BC019B1477F28602AC04F7E09B1A1
:1071B00020612CC04F7D19B120622FC04F7B09B1D7
:1071C000206432C0422709B149934FEF00001027D5
:1071D00014FB20F919B11471C9F1297F91F201272B
:1071E00004FB21F909B1237F89F2315058F11027AE
:1071F00014FB22F919B1277E79F2012704FB23F948
:107200002F7C81F209B1102714FB24F92F7971F238
:1072100000C019B1012704FB25F92F7359F200C0F2
:1072200009B1102714FB26F9223040F200C019B131
:10723000012704FB27F9243028F64F77206819B17D
:107240000000F9CF11E01CBB002719C03B5031955D
:10725000C31BD04011E01CBB0881033CF9F00B3488
:10726000E9F020912B011981110F1213EDCF4A8102
:10727000441F093641F10D3211F0013E29F7009308
:1072800032013F914F911F910F912F91DF91CCB31C
:10729000C0FD4FCFCF91CFBFCF9118952091320134
:1072A000222379F310913001112369F534306AF10A
:1072B0003093300120932C0110912D013BE0311BC4
:1072C00030932D0122C0009130010130E4F40AE531
:1072D0004F7049F43091010134FD19C00093010150
:1072E000C4E1D1E018C030911F0134FD10C00093FB
:1072F0001F01C0E2D1E00FC02795A8F45150A9F4B6
:10730000220F0000F9CF4AE503C042ED01C0432F30
:10731000C4E1D0E032E01AB114615C9A1AB90BB141
:1073200020E414E15F93012756E00BB9279520F480
:10733000515021F4220FF9CF012756E000003B5AAB
:107340000BB9D0F2279528F4515029F4220F0000F0
:10735000F9CF012756E027950BB920F4515021F4BD
:10736000220FF9CF012756E0299133230BB921F6DB
:107370000B7E10913101110FC651D0400BB911F0A5
:1073800010932B0111E01CBB00611AB11B7E402F32
:107390004B7E5F9100C000C00BB91AB94BB971CFD9
:1073A000109212011092850010928400E1E8F0E042
:1073B000808185608083089510921201E1E8F0E0F9
:1073C0008081887F8083089588E10FB6F894809348
:1073D0006000109260000FBE219A299842983A9A54
:1073E0005B9A14BE81E085BF82E085BF8091690011
:1073F000826080936900E89A8BE4809320018AE59B
:1074000080931F01549A80E0815041F0A895E7EBEA
:10741000FBE03197F1F700C00000F6CF549880915F
:10742000810088608093810086EC9DE290938900C2
:10743000809388007894F12CE12C10913001135046
:1074400017FD6BC180912D01CCE0D0E0C81BD109A4
:10745000CC5CDE4F80912C018D3209F0D2C0183007
:1074600009F059C183EC809314018AE580930101EE
:10747000109213018881807609F446C09DDF86E072
:1074800091E090932F0180932E0129812330C9F43C
:107490009B818C812A81203339F48370E82FF0E0BE
:1074A000EE5FFE4F808109C0203A11F4DED105C0A5
:1074B000203C11F46D81E1D180E08093090114E05A
:1074C00021C02530F1F08CEF820F863098F48A814C
:1074D0009B819093100180930F01293081F08E8160
:1074E00080930E018D81827080930D0120930C0199
:1074F0001FEF08C0223019F481E08093110110E0E1
:1075000001C011E04DDF6AC09A8110921D0189818E
:10751000811106C010921E018DE191E012E05AC067
:10752000853019F49093310152C08630D1F58B81AA
:10753000813041F481E890E790932F0180932E01F0
:1075400012E12BC0823041F488E690E790932F013E
:1075500080932E0119E121C08330F1F4911108C00C
:107560008DEB90E790932F0180932E0114E015C0CE
:10757000913041F481EA90E790932F0180932E019E
:107580001CE10BC0923041F483E990E790932F0106
:1075900080932E011EE001C010E080E4809313016F
:1075A0001DC0883069F0893019F4909333010FC001
:1075B0008A3049F08B3059F48BE48093200107C066
:1075C00083E391E002C08DE191E011E003C08DE121
:1075D00091E010E090932F0180932E011F3F39F42A
:1075E000888187FD1E8180E88093130107C08F8109
:1075F000811104C08E81811708F4182F10930001A7
:107600008AC08091130187FF86C0D6DE80910E016B
:10761000D12E811708F4D82E8D1980930E01CC2419
:10762000C3948111C12C80910C01873010F4DE01CC
:107630003DC0BC2E0C2F1D2F802F8B198D1508F0EF
:1076400039C0F80161918F0180910F019091100173
:107650009C012F5F3F4F3093100120930F010DD1FC
:10766000EBCF80910F01909110018F779927892B93
:1076700039F1F894E0910F01F09110018D919D91F5
:1076800021E00C0120935700E89511247894809113
:107690000F019091100102969093100180930F01B9
:1076A0008F779927892B11F1C11018C08A2F8C1B55
:1076B0008D15B8F275DECC2071F1109200012BC04F
:1076C000F894E0910F01F091100183E0809357004E
:1076D000E895789407B600FCFDCFCBCF8A2F8C1BA2
:1076E0008D1520F380910D01882301F3F894E0912A
:1076F0000F01F0911001329785E080935700E895D3
:10770000789407B600FCFDCFF89481E18093570090
:10771000E8957894CBCF109230018091010184FFDD
:107720006FC0809100018F3F09F46AC0D82E893064
:1077300010F098E0D92E8D198093000180911401EA
:1077400098E8892780931401DD2009F44CC08091CA
:10775000130187FF2AC030DE80910E018D1508F4D9
:10776000D82E8D1980930E01C0900C01C5E1D1E097
:1077700085E191E0FC2FF81BFD15A8F400910F01A5
:107780001091100186E08C1518F4C8016ED002C06B
:10779000F8018491888321960F5F1F4F1093100189
:1077A00000930F01E5CFFCDD1EC0E0912E01F091AA
:1077B0002F0186FF0BC085E191E0DC0124912D9320
:1077C00031962D2D280F2A13F9CF09C085E191E0BC
:1077D000DC0121912D932D2D280F2A13FACFF09340
:1077E0002F01E0932E016D2D85E191E09BDC84E07B
:1077F0008D0D8C3019F09FEF909300018093010163
:1078000084E199B1947131F48150D9F7109231012A
:1078100010922B015F9A8FEF8E0D51F4FA9441F480
:10782000909112019F5F909312019AB190589AB96A
:10783000909112019E3158F490911101911102C062
:10784000E82EFBCD8EEF8E0DD9F7FA94C9F7109282
:107850008100F8941DBA1092690081E085BF15BEC1
:10786000E0910A01F0910B010995F999FECF92BDC3
:1078700081BDF89A992780B50895262FF999FECFF2
:107880001FBA92BD81BD20BD0FB6F894FA9AF99A3D
:0A7890000FBE01960895F894FFCF93
:06789A00FF5A1E950F00CD
:040000030000700089
:00000001FF