:100000000C94BA000C94E2000C94E2000C94E20010
:100010000C94E2000C94E2000C94E2000C94E200D8
:100020000C94E2000C94E2000C94E2000C94E200C8
:100030000C94E2000C94E2000C94E2000C94E200B8
:100040000C94ED040C94E2000C9481040C945B0479
:100050000C94E2000C94E2000C94E2000C94E20098
:100060000C940B060C94E200020408626961732090
:10007000783D006D670A00097A3D0009793D00620C
:1000800069617320783D004552523A20466C754DA7
:100090004D4138363578206E6F7420707265736507
:1000A0006E742100636F6E76466163743D00466C2A
:1000B000754D4D41383635782F6578616D706C65BA
:1000C000732F466C754D4D41383635784C696272E8
:1000D000617279746573740A0009207A3D00092001
:1000E000793D0073707572696F7573207472616EFB
:1000F0007369656E7420696E746572727570740AC6
:1001000000534C4545502F4143544956450A00730E
:10011000707572696F7573205352435F445244592E
:1001200020696E746572727570740A0000000000B8
:10013000250028002B000404040404040404020223
:100140000202020203030303030301020408102056
:100150004080010204081020010204081020000061
:100160000008000201000003040700000000000076
:100170000000390711241FBECFEFD8E0DEBFCDBF8E
:1001800011E0A0E0B1E0E4E3F6E102C005900D92D9
:10019000AA33B107D9F722E0AAE3B1E001C01D926A
:1001A000AD3AB207E1F710E0CAEBD0E004C0219706
:1001B000FE010E94FE0AC93BD107C9F70E947207DF
:1001C0000C94180B0C9400000F931F93CF93DF93A4
:1001D0008C01C0E0D0E0F801EC0FFD1F64916623B4
:1001E00071F0E091AB01F091AC010190F081E02D54
:1001F0008BEA91E00995892B11F02196ECCFCE0185
:10020000DF91CF911F910F91089590E0FC01E25A88
:10021000FE4F2491FC01E65BFE4F3491FC01EA5C49
:10022000FE4FE491EE23B1F1222339F1233091F016
:1002300038F42130A9F0223001F584B58F7D12C049
:10024000273091F02830A1F02430B9F4809180005B
:100250008F7D03C0809180008F77809380000DC0D8
:1002600084B58F7784BD09C08091B0008F7703C0BB
:100270008091B0008F7D8093B000F0E0EE0FFF1F03
:10028000E45DFE4FA591B4918FB7F894EC913E2BAD
:100290003C938FBF0895009769F0FC010190002006
:1002A000E9F73197AF01481B590BBC018BEA91E08C
:1002B0000C946F0280E090E008958F929F92AF922D
:1002C000BF920F931F93CF93DF93CDB7DEB7A19764
:1002D0000FB6F894DEBF0FBECDBF19A2423008F4AE
:1002E0004AE08E010F5D1F4F842E912CA12CB12C62
:1002F000A50194010E94B20AE62FB901CA0101507A
:100300001109EA3014F4E05D01C0E95CD801EC9316
:10031000232B242B252B61F7C8010E944B01A196AA
:100320000FB6F894DEBF0FBECDBFDF91CF911F9106
:100330000F91BF90AF909F908F900895CF92DF92D2
:10034000EF92FF92CF93DF9397FF21C06B017C0167
:10035000E091AB01F091AC010190F081E02D6DE2F4
:100360008BEA91E00995EC0166277727CB016C19A0
:100370007D098E099F094AE00E945D018C0F9D1F37
:10038000DF91CF91FF90EF90DF90CF9008954AE0FA
:10039000DF91CF91FF90EF90DF90CF900C945D01B3
:1003A0009091AA019111FCCF91E09093AA019093B2
:1003B000A9012FEF2093A8011092A701280F2093E5
:1003C000A6019093A5019091A5019A639093A50130
:1003D0009091A401913061F41092A4019091A50133
:1003E0009093BB009091BC0093FDF8CF95EC01C0B9
:1003F00095EE9093BC009091AA019130E1F3909119
:10040000A701981710F48091A701A4E8B1E024E6B1
:1004100031E0F9019E2F921B981718F49D9191934A
:10042000F9CF0895382F2091630190916201213214
:1004300008F049C08091AA018111FCCF42E04093AD
:10044000AA013093A9013FEF3093A8011092A701B0
:100450002093A601A2E4B1E044E851E0FA013E2F66
:10046000341B321718F43D913193F9CF1092A50146
:100470002091A501990F922B9093A5019091A40131
:10048000913061F41092A4019091A5019093BB006A
:100490009091BC0093FDF8CF95EC01C095EE909340
:1004A000BC009091AA019230E1F39091A8019F3F86
:1004B00079F08091A801803241F08091A8018033C9
:1004C00031F084E005C081E003C082E001C083E038
:1004D0001092410110926301109240010895CF9251
:1004E000DF92EF92FF920F931F93CF93DF936C01F4
:1004F0007A018B01C0E0D0E0CE15DF0589F0D8018C
:100500006D918D01D601ED91FC910190F081E02D6E
:10051000C6010995892B11F47E0102C02196ECCF0A
:10052000C701DF91CF911F910F91FF90EF90DF9066
:10053000CF900895FC01538D448D252F30E0842FFA
:1005400090E0821B930B541710F0CF9608950197FB
:100550000895FC01918D828D981761F0828DDF01E5
:10056000A80FB11D5D968C91928D9F5F9F73928FA6
:1005700090E008958FEF9FEF0895FC01918D828D9B
:10058000981731F0828DE80FF11D858D90E0089568
:100590008FEF9FEF0895FC01918D228D892F90E0C0
:1005A000805C9F4F821B91098F73992708958BEA76
:1005B00091E00E94CB0221E0892B09F420E0822FF8
:1005C0000895FC01848DDF01A80FB11DA35ABF4F10
:1005D0002C91848D90E001968F739927848FA68942
:1005E000B7892C93A089B1898C9180648C93938D69
:1005F000848D981306C00288F389E02D80818F7D59
:1006000080830895EF92FF920F931F93CF93DF9310
:10061000EC0181E0888F9B8D8C8D981305C0E88953
:10062000F989808185FD24C0F62E0B8D10E00F5FC7
:100630001F4F0F731127E02E8C8DE8120CC00FB6E0
:1006400007FCFACFE889F989808185FFF5CFCE01D3
:100650000E94E102F1CF8B8DFE01E80FF11DE35AFC
:10066000FF4FF0820B8FEA89FB898081806207C08F
:10067000EE89FF896083E889F989808180648083BD
:1006800081E090E0DF91CF911F910F91FF90EF906B
:100690000895CF93DF93EC01888D8823C9F0EA8910
:1006A000FB89808185FD05C0A889B9898C9186FD6B
:1006B0000FC00FB607FCF5CF808185FFF2CFA88968
:1006C000B9898C9185FFEDCFCE010E94E102E7CF81
:1006D000DF91CF91089580E090E0892B29F00E946E
:1006E000D70281110C94000008959FB7F8944091AF
:1006F000A9025091AA026091AB027091AC0286B53A
:10070000A89B06C08F3F21F04F5F5F4F6F4F7F4F19
:100710009FBF762F652F542F44279A01AB01280FD6
:10072000311D411D511DA5E0B0E00E94F30A08955E
:1007300080913A0190E020913B01821B910908953C
:1007400085ED8093BC008091BC0084FDFCCF1092AD
:10075000AA01089540918302262F30E0240F311D15
:1007600021323105DCF42091AA012430C9F4FC01C6
:1007700080E090E0861758F4309183022191DC01EB
:10078000AF59BD4FA30FB11D2C930196F3CF8091AC
:100790008302680F6093830280E0089581E00895EA
:1007A00082E008950895E0913B0180913A01E817B5
:1007B00030F4F0E0EC59FE4F808190E008958FEF27
:1007C0009FEF089590913B0180913A01981750F462
:1007D000E92FF0E0EC59FE4F208130E09F5F9093CD
:1007E0003B0102C02FEF3FEFC9010895CF92DF9286
:1007F000EF92FF920F931F93CF93DF937C01262FED
:10080000972F8A0180914001882391F0C62FD72F1E
:100810006E01C40ED51ECC15DD0571F06991D701AE
:10082000ED91FC910190F081E02DC7010995F3CF86
:10083000642F822F0E94AA03C801DF91CF911F91DC
:100840000F91FF90EF90DF90CF900895CF93DF93BB
:100850001F92CDB7DEB76983209140012223D1F0EA
:1008600020916301203240F021E030E0FC0133832D
:10087000228380E090E015C080914101E82FF0E0F4
:10088000EE5BFE4F998190838F5F8093410180934F
:10089000630105C061E0CE0101960E94AA0381E0D8
:1008A00090E00F90DF91CF910895089580E090E05F
:1008B00008950E94130B1F920F920FB60F921124EE
:1008C0002F933F934F935F936F937F938F939F9358
:1008D000AF93BF93EF93FF938BEA91E00E94E10205
:1008E000FF91EF91BF91AF919F918F917F916F9108
:1008F0005F914F913F912F910F900FBE0F901F90DE
:1009000018951F920F920FB60F9211242F938F9369
:100910009F93EF93FF93E091BB01F091BC01808125
:10092000E091C101F091C20182FD12C090818091DD
:10093000C4018F5F8F732091C501821751F0E09140
:10094000C401F0E0E555FE4F958F8093C40101C0CE
:100950008081FF91EF919F918F912F910F900FBE0A
:100960000F901F9018958F929F92AF92BF92CF9247
:10097000DF92EF92FF926B017C010E9475034B01A5
:100980005C01C114D104E104F104F1F00E9475038B
:10099000DC01CB0188199909AA09BB09883E93405B
:1009A000A105B10570F321E0C21AD108E108F108F0
:1009B00088EE880E83E0981EA11CB11CC114D104DE
:1009C000E104F10419F7DDCFFF90EF90DF90CF90B5
:1009D000BF90AF909F908F9008951F920F920FB687
:1009E0000F9211242F933F938F939F93AF93BF93B5
:1009F00080913C0190913D01A0913E01B0913F0159
:100A00003091A8022DE2230F2D3720F40196A11D6D
:100A1000B11D05C020EB230F0296A11DB11D20932F
:100A2000A80280933C0190933D01A0933E01B093B6
:100A30003F018091A9029091AA02A091AB02B091CE
:100A4000AC020196A11DB11D8093A9029093AA0248
:100A5000A093AB02B093AC02BF91AF919F918F91E5
:100A60003F912F910F900FBE0F901F90189591E01E
:100A7000909340019DE19093620110924101109288
:100A80006301682F88E492E00E94260480E00E94BF
:100A9000120281E00E94D00110923B0180933A0142
:100AA00088E492E00E94E2030895CF93C62F91E07C
:100AB000909340019DE19093620110924101109248
:100AC0006301682F88E492E00E9426046C2F88E47A
:100AD00092E00E94260481E0CF910C9412020F93C1
:100AE0001F93CF93DF93CDB7DEB72C970FB6F89453
:100AF000DEBF0FBECDBF81E0809340018DE18093CA
:100B00006201109241011092630161E088E492E079
:100B10000E94260480E00E94120286E00E94D0011A
:100B200010923B0180933A0110E090913A0180913C
:100B30003B01981779F001E0010F88E492E00E94F0
:100B4000E203E1E0F0E0EC0FFD1FE10FF11D808317
:100B5000102FEBCF4B8150E0542F44278C81482B32
:100B600094E0559547959A95E1F74F5F5F4F6D81FA
:100B700070E0762F66278E81682B34E07595679537
:100B80003A95E1F76F5F7F4F298130E0322F2227BE
:100B90008A81282BF4E035952795FA95E1F72F5FA8
:100BA0003F4F38872F835A8749877C876B873885E3
:100BB0005A857C8580E090E02C960FB6F894DEBFD5
:100BC0000FBECDBFDF91CF911F910F910895CF93AD
:100BD000DF9300D000D000D0CDB7DEB70E946F0504
:100BE00080E026960FB6F894DEBF0FBECDBFDF9132
:100BF000CF910C9437058AE20E9437058160682FF7
:100C00008AE20C9455058AE20E9437058E7F682F90
:100C10008AE20C9455051F920F920FB60F92112481
:100C20002F933F934F935F936F937F938F939F93F4
:100C3000AF93BF93EF93FF938091B900887F803685
:100C400009F49CC068F5883209F45BC090F48031E7
:100C500009F454C038F4882309F4F6C0883009F444
:100C60004DC0F6C0883109F44CC0803209F45DC033
:100C7000EFC0803409F468C048F4803309F455C0EB
:100C8000883309F0E5C08093A801D8C0803509F405
:100C90004FC0883509F45DC0883409F0D9C0D6C08A
:100CA000883909F4C7C0A8F4883709F467C038F454
:100CB000883609F463C0803709F460C0C9C0883839
:100CC00009F4B8C0803909F45FC0803809F0C0C0A9
:100CD0005BC0803B09F486C038F4803A09F466C0F2
:100CE000883A09F47FC0B4C0803C09F4A7C0883CAE
:100CF00009F4A4C0883B09F48AC0AAC08091A50168
:100D000010C09091A7018091A601981770F5E0910D
:100D1000A70181E08E0F8093A701F0E0EC57FE4F12
:100D200080818093BB0085EC86C08093A8018EC033
:100D3000E091A70181E08E0F8093A7018091BB0015
:100D4000F0E0EC57FE4F80839091A7018091A601BF
:100D50006EC0E091A70181E08E0F8093A701809182
:100D6000BB00F0E0EC57FE4F80838091A901811118
:100D70006DC081E08093A40184EA61C083E0809328
:100D8000AA011092A702CFCF8091A702803208F06B
:100D900051C0E091A70281E08E0F8093A70280915D
:100DA000BB00F0E0E957FD4F8083BDCF85EC809319
:100DB000BC001092AA018091A702803230F4E09129
:100DC000A702F0E0E957FD4F10826091A70270E0A2
:100DD000E0918502F091860287E892E009951092F1
:100DE000A70236C084E08093AA0110928402109278
:100DF0008302E0918102F091820209958091830241
:100E0000811105C081E08093830210926102E0911C
:100E1000840281E08E0F80938402F0E0EF59FD4F51
:100E200080818093BB009091840280918302981707
:100E300008F479CF85E88093BC000AC085EC8093E4
:100E4000BC001092AA0104C01092A8010E94A00345
:100E5000FF91EF91BF91AF919F918F917F916F9192
:100E60005F914F913F912F910F900FBE0F901F9068
:100E70001895EBEAF1E01382128288EE93E0A0E08D
:100E8000B0E084839583A683B78326E031E0318385
:100E9000208325EC30E03587248724EC30E0378749
:100EA000268720EC30E0318B208B21EC30E0338B37
:100EB000228B22EC30E0358B248B26EC30E0378B14
:100EC000268B118E128E138E148EE8E4F2E01382BC
:100ED000128284839583A683B78388E191E091830E
:100EE00080830895CF93DF9300D000D000D0CDB79A
:100EF000DEB7789484B5826084BD84B5816084BD9A
:100F000085B5826085BD85B5816085BD80916E00A7
:100F1000816080936E0010928100809181008260D8
:100F20008093810080918100816080938100809115
:100F300080008160809380008091B1008460809304
:100F4000B1008091B00081608093B00080917A0000
:100F5000846080937A0080917A00826080937A0026
:100F600080917A008E7F80937A0080917A008068E9
:100F700080937A001092C100E091BB01F091BC0116
:100F800082E08083E091B701F091B8011082E09196
:100F9000B901F091BA0189E180831092C301E09117
:100FA000BF01F091C00186E08083E091BD01F09126
:100FB000BE01808180618083E091BD01F091BE011E
:100FC000808188608083E091BD01F091BE018081C5
:100FD00080688083E091BD01F091BE0180818F7DAA
:100FE000808384E391E00E944B0168EC70E080E034
:100FF00090E00E94B3048EEA90E00E94E40087E053
:1010000090E09093010180930001E8E6F0E0A49164
:10101000B0E020E432E44FE050E00E94F30A6B01BC
:101020007C013BE0F694E794D794C7943A95D1F7C6
:10103000D0925502C092540284EA90E00E94E400EB
:10104000C701B601882799274AE00E945D0186E220
:1010500091E00E944B0110923B0110923A011092D4
:101060004101109263011092AA0181E08093A901CD
:101070001092A40182E10E94050183E10E94050112
:101080008091B9008E7F8093B9008091B9008D7FE7
:101090008093B90084E38093B80085E48093BC001A
:1010A00060E48BE20E94550562E070E080E090E031
:1010B0000E94B3048DE00E9437058A3409F049C2CA
:1010C0000E94E7050E94030661E08AE20E9455053E
:1010D00060E08EE00E9455050E94FB0560ED77E020
:1010E00080E090E00E94B3040E94E70504E610E06F
:1010F000412C512C3201812C912C5401C12CD12C2A
:1011000076010E946F0529833A834B835C836D834C
:101110007E8389819A81092E000CAA0BBB0BC80E15
:10112000D91EEA1EFB1E8B819C81092E000CAA0B86
:10113000BB0B880E991EAA1EBB1E8D819E81092E97
:10114000000CAA0BBB0B480E591E6A1E7B1E6FE0DB
:1011500070E080E090E00E94B3040150110989F62C
:10116000C701B60124E630E040E050E00E94D40A16
:1011700069017A01C501B40124E630E040E050E0A5
:101180000E94D40A49015A01C301B20124E630E0A9
:1011900040E050E00E94D40A29013A0112161306D9
:1011A000140615062CF484E0581A6108710804C06E
:1011B00084E0580E611C711C8BE690E00E94E400F4
:1011C000C701B6010E949E018AE291E00E944B0194
:1011D000C501B4010E949E018EE291E00E944B0184
:1011E000C301B2010E949E0182E391E00E944B0183
:1011F0000E94030661E070E080E090E00E94B3048A
:1012000066277727CB016C197D098E099F0922E09B
:10121000C22ED12CE12CF12CA70196010E94D40AF8
:10122000622F8FE20E94550561E070E080E090E05F
:101230000E94B30466277727CB01681979098A09C8
:101240009B09A70196010E94D40A622F80E30E94A5
:10125000550561E070E080E090E00E94B3046627ED
:101260007727CB016419750986099709A7019601AB
:101270000E94D40A622F81E30E94550561E070E06C
:1012800080E090E00E94B3040E94FB0581E30E948D
:101290003705182F80E30E943705082F8FE20E9440
:1012A0003705F82E8FE790E00E94E4006F2D660F5F
:1012B000770B072E000C880B990B0E949E018BE781
:1012C00090E00E94E400602F660F770B072E000C61
:1012D000880B990B0E949E0187E790E00E94E40032
:1012E000612F660F770B072E000C880B990B0E945D
:1012F0009E0183E790E00E94E4000E94030663E001
:101300006F7E6F7D8FE00E94550560E060618EE02A
:101310000E9455058AE20E943705609100016770BE
:10132000660F660F660F606C8AE20E94550566E0E4
:101330008BE20E94550560E489E20E94550568E64B
:101340008CE20E94550560E06160646060616D7FC1
:10135000677F6F7D6F77606481E20E94550560E270
:1013600083E20E94550560E284E20E94550560E236
:1013700085E20E94550560E386E20E94550560EA19
:1013800087E20E9455056FEF88E20E94550568EDDF
:1013900085E10E94550568E0606887E10E94550577
:1013A00064E088E10E9455056EE18DE10E945505DB
:1013B00063E08FE10E94550568E080E20E945505D8
:1013C0006DEB8DE20E9455050E94FB0560ED77E014
:1013D00080E090E00E94B304109260020E94E70552
:1013E0008CE00E943705182F882329F08091600235
:1013F00018131093600210FF61C080E00E9437054F
:1014000083FF58C00E946F05209356023093570205
:10141000409358025093590260935A0270935B02B2
:10142000A0905602B0905702C501B7FE04C08827AD
:1014300099278A199B09C0905802D0905902E090D0
:101440005A02F0905B02029794F4C601D7FE04C0E2
:10145000882799278C199D0902974CF4C701F7FE3C
:1014600004C0882799278E199F0902973CF186E3CB
:1014700091E00E944B01B501BB0C880B990B0E94B7
:101480009E018EED90E00E94E400B601DD0C880B19
:10149000990B0E949E0189ED90E00E94E400B70143
:1014A000FF0C880B990B0E949E0184E391E00E943F
:1014B0004B0104C08FE091E00E94E40017FF07C0D9
:1014C00081E091E00E94E4008BE00E94370515FF67
:1014D00038C02FB7F89480913C0190913D01A091C4
:1014E0003E01B0913F012FBF40915C0250915D02DF
:1014F00060915E0270915F02841B950BA60BB70B87
:1015000084369105A105B105E0F08EE10E94370512
:1015100086FD04C083EE90E00E94E4002FB7F894AB
:1015200080913C0190913D01A0913E01B0913F011D
:101530002FBF80935C0290935D02A0935E02B093F4
:101540005F0213FF03C082E20E9437050E946B0313
:1015500047CF87E890E00E94E40060E27EE480E00C
:1015600090E0A6CDA1E21A2EAA1BBB1BFD010DC067
:10157000AA1FBB1FEE1FFF1FA217B307E407F50743
:1015800020F0A21BB30BE40BF50B661F771F881F1F
:10159000991F1A9469F760957095809590959B01B5
:1015A000AC01BD01CF010895052E97FB1EF40094F8
:1015B0000E94EB0A57FD07D00E94B20A07FC03D035
:1015C0004EF40C94EB0A50954095309521953F4F81
:1015D0004F4F5F4F089590958095709561957F4F1F
:1015E0008F4F9F4F08950E94040BA59F900DB49FAD
:1015F000900DA49F800D911D11240895EE0FFF1FE3
:101600000590F491E02D0994A29FB001B39FC00111
:10161000A39F700D811D1124911DB29F700D811D1E
:101620001124911D089581E090E0F8940C94180B1A
:04163000F894FFCF5C
:1016340004000000000002036F029A024903CB0277
:10164400A902BD02000000002604F6035604D203DA
:101654009803E203D30375670A0009793D00097A08
:0A1664003D006D670A00783D0000AC

:1070000060C0000093C0000077C0000075C00000A1
:1070100073C0000071C000006FC000006DC00000B0
:107020006BC0000069C0000067C0000065C00000C0
:1070300063C0000061C000005FC000005DC00000D0
:107040005BC0000059C0000057C0000055C00000E0
:1070500053C0000051C000004FC000004DC00000F0
:107060004BC0000049C00000090219000101008066
:107070007D090400000100000000070581030800ED
:107080000A12011001FF000008C016DC0502010110
:107090000200010E035500530042006100730070AE
:1070A000001C037700770077002E006600690073EC
:1070B00000630068006C002E006400650004030992
:1070C000040011241FBECFEFD8E0DEBFCDBF11E01A
:1070D000A0E0B1E0EAE9F8E702C005900D92A63021
:1070E000B107D9F721E0A6E0B1E001C01D92AA34B2
:1070F000B207E1F769D1CFC383CFA82FB92F80E0C2
:1071000090E041E050EA609530E009C02D9182277F
:107110009795879510F084279527305EC8F36F5FA9
:10712000A8F30895EADF8D939D930895CF93CFB789
:10713000CF93C3954C9BE9F74C9B09C04C9B07C070
:107140004C9B05C04C9B03C04C9B01C0A3C0DF936C
:10715000C0912D01DD27CC5CDE4F4C9B02C0DF913E
:10716000EBCF2F930F931F9309B12FEF04FB20F95F
:107170004F933F9319B14FEF012704FB21F93BE0F7
:1071800031C04E7F012F19B1216028C0102F4D7FD3
:107190002260000009B129C04B7F2460012F00004C
:1071A00019B12BC019B1477F28602AC04F7E09B1A1
:1071B00020612CC04F7D19B120622FC04F7B09B1D7
:1071C000206432C0422709B149934FEF00001027D5
:1071D00014FB20F919B11471C9F1297F91F201272B
:1071E00004FB21F909B1237F89F2315058F11027AE
:1071F00014FB22F919B1277E79F2012704FB23F948
:107200002F7C81F209B1102714FB24F92F7971F238
:1072100000C019B1012704FB25F92F7359F200C0F2
:1072200009B1102714FB26F9223040F200C019B131
:10723000012704FB27F9243028F64F77206819B17D
:107240000000F9CF11E01CBB002719C03B5031955D
:10725000C31BD04011E01CBB0881033CF9F00B3488
:10726000E9F020912B011981110F1213EDCF4A8102
:10727000441F093641F10D3211F0013E29F7009308
:1072800032013F914F911F910F912F91DF91CCB31C
:10729000C0FD4FCFCF91CFBFCF9118952091320134
:1072A000222379F310913001112369F534306AF10A
:1072B0003093300120932C0110912D013BE0311BC4
:1072C00030932D0122C0009130010130E4F40AE531
:1072D0004F7049F43091010134FD19C00093010150
:1072E000C4E1D1E018C030911F0134FD10C00093FB
:1072F0001F01C0E2D1E00FC02795A8F45150A9F4B6
:10730000220F0000F9CF4AE503C042ED01C0432F30
:10731000C4E1D0E032E01AB114615C9A1AB90BB141
:1073200020E414E15F93012756E00BB9279520F480
:10733000515021F4220FF9CF012756E000003B5AAB
:107340000BB9D0F2279528F4515029F4220F0000F0
:10735000F9CF012756E027950BB920F4515021F4BD
:10736000220FF9CF012756E0299133230BB921F6DB
:107370000B7E10913101110FC651D0400BB911F0A5
:1073800010932B0111E01CBB00611AB11B7E402F32
:107390004B7E5F9100C000C00BB91AB94BB971CFD9
:1073A000109212011092850010928400E1E8F0E042
:1073B000808185608083089510921201E1E8F0E0F9
:1073C0008081887F8083089588E10FB6F894809348
:1073D0006000109260000FBE219A299842983A9A54
:1073E0005B9A14BE81E085BF82E085BF8091690011
:1073F000826080936900E89A8BE4809320018AE59B
:1074000080931F01549A80E0815041F0A895E7EBEA
:10741000FBE03197F1F700C00000F6CF549880915F
:10742000810088608093810086EC9DE290938900C2
:10743000809388007894F12CE12C10913001135046
:1074400017FD6BC180912D01CCE0D0E0C81BD109A4
:10745000CC5CDE4F80912C018D3209F0D2C0183007
:1074600009F059C183EC809314018AE580930101EE
:10747000109213018881807609F446C09DDF86E072
:1074800091E090932F0180932E0129812330C9F43C
:107490009B818C812A81203339F48370E82FF0E0BE
:1074A000EE5FFE4F808109C0203A11F4DED105C0A5
:1074B000203C11F46D81E1D180E08093090114E05A
:1074C00021C02530F1F08CEF820F863098F48A814C
:1074D0009B819093100180930F01293081F08E8160
:1074E00080930E018D81827080930D0120930C0199
:1074F0001FEF08C0223019F481E08093110110E0E1
:1075000001C011E04DDF6AC09A8110921D0189818E
:10751000811106C010921E018DE191E012E05AC067
:10752000853019F49093310152C08630D1F58B81AA
:10753000813041F481E890E790932F0180932E01F0
:1075400012E12BC0823041F488E690E790932F013E
:1075500080932E0119E121C08330F1F4911108C00C
:107560008DEB90E790932F0180932E0114E015C0CE
:10757000913041F481EA90E790932F0180932E019E
:107580001CE10BC0923041F483E990E790932F0106
:1075900080932E011EE001C010E080E4809313016F
:1075A0001DC0883069F0893019F4909333010FC001
:1075B0008A3049F08B3059F48BE48093200107C066
:1075C00083E391E002C08DE191E011E003C08DE121
:1075D00091E010E090932F0180932E011F3F39F42A
:1075E000888187FD1E8180E88093130107C08F8109
:1075F000811104C08E81811708F4182F10930001A7
:107600008AC08091130187FF86C0D6DE80910E016B
:10761000D12E811708F4D82E8D1980930E01CC2419
:10762000C3948111C12C80910C01873010F4DE01CC
:107630003DC0BC2E0C2F1D2F802F8B198D1508F0EF
:1076400039C0F80161918F0180910F019091100173
:107650009C012F5F3F4F3093100120930F010DD1FC
:10766000EBCF80910F01909110018F779927892B93
:1076700039F1F894E0910F01F09110018D919D91F5
:1076800021E00C0120935700E89511247894809113
:107690000F019091100102969093100180930F01B9
:1076A0008F779927892B11F1C11018C08A2F8C1B55
:1076B0008D15B8F275DECC2071F1109200012BC04F
:1076C000F894E0910F01F091100183E0809357004E
:1076D000E895789407B600FCFDCFCBCF8A2F8C1BA2
:1076E0008D1520F380910D01882301F3F894E0912A
:1076F0000F01F0911001329785E080935700E895D3
:10770000789407B600FCFDCFF89481E18093570090
:10771000E8957894CBCF109230018091010184FFDD
:107720006FC0809100018F3F09F46AC0D82E893064
:1077300010F098E0D92E8D198093000180911401EA
:1077400098E8892780931401DD2009F44CC08091CA
:10775000130187FF2AC030DE80910E018D1508F4D9
:10776000D82E8D1980930E01C0900C01C5E1D1E097
:1077700085E191E0FC2FF81BFD15A8F400910F01A5
:107780001091100186E08C1518F4C8016ED002C06B
:10779000F8018491888321960F5F1F4F1093100189
:1077A00000930F01E5CFFCDD1EC0E0912E01F091AA
:1077B0002F0186FF0BC085E191E0DC0124912D9320
:1077C00031962D2D280F2A13F9CF09C085E191E0BC
:1077D000DC0121912D932D2D280F2A13FACFF09340
:1077E0002F01E0932E016D2D85E191E09BDC84E07B
:1077F0008D0D8C3019F09FEF909300018093010163
:1078000084E199B1947131F48150D9F7109231012A
:1078100010922B015F9A8FEF8E0D51F4FA9441F480
:10782000909112019F5F909312019AB190589AB96A
:10783000909112019E3158F490911101911102C062
:10784000E82EFBCD8EEF8E0DD9F7FA94C9F7109282
:107850008100F8941DBA1092690081E085BF15BEC1
:10786000E0910A01F0910B010995F999FECF92BDC3
:1078700081BDF89A992780B50895262FF999FECFF2
:107880001FBA92BD81BD20BD0FB6F894FA9AF99A3D
:0A7890000FBE01960895F894FFCF93
:06789A00FF5A1E950F00CD
:040000030000700089
:00000001FF